:020000040800F2
:1000000020100010A1010008872F0008DB2900083C
:10001000852F0008D7070008CB400008000000002B
:10002000000000000000000000000000F13900089E
:100030001308000800000000E5300008F33900084C
:10004000BB010008BB010008BB010008BB010008A0
:10005000BB010008BB010008BB010008BB01000890
:10006000BB010008BB010008BB010008BB01000880
:10007000BB010008D9070008BB010008BB0100084C
:10008000BB010008BB010008BB010008BB01000860
:10009000BB010008BB010008BB010008BB01000850
:1000A000BB010008BB010008BB010008BB01000840
:1000B000BB0100080000000000000000BB010008B8
:1000C000BB010008BB010008BB010008793400082F
:1000D000BB010008BB010008BB010008BB01000810
:1000E000BB010008BB010008000000000000000088
:1000F0000000000000000000000000000000000000
:1001000000000000BB01000800000000BB01000867
:1001100000000000000000006D3A0008793A000875
:10012000BB010008BB010008BB010008BB010008BF
:10013000BB010008000000000000000000000000FB
:10014000BB010008BB010008BB0100080000000063
:10015000BB010008BB010008BB010008BB0100088F
:10016000BB010008BB010008BB0100080000000043
:10017000BB010008BB0100080000000000000000F7
:10018000BB010008BB010008BB010008DFF80CD070
:1001900000F0E4FA00480047D93C020820100010A3
:1001A0000648804706480047FEE7FEE7FEE7FEE711
:1001B000FEE7FEE7FEE7FEE7FEE7FEE75D3A000842
:1001C0008D0100082DE9F05F0546002092469B4610
:1001D00088460646814640241BE02846414647465D
:1001E000224600F03BFA53465A46C01A914110D3BA
:1001F00011461846224600F022FA2D1A67EB010834
:100200004F4622460120002100F019FA17EB0009A1
:100210004E41201EA4F10104DFDC484631462A4647
:10022000434600F000B830BCBDE8C09F10B5431A8B
:10023000934209D28318881803E010F8011D03F8CF
:10024000011D521EF9D210BD40EA01039B0703D0E5
:1002500009E008C9121F08C0042AFAD203E011F805
:10026000013B00F8013B521EF9D210BDD2B201E0B1
:1002700000F8012B491EFBD270470022F6E710B5AB
:1002800013460A4604461946FFF7F0FF204610BD04
:10029000421C10F8011B0029FBD1801A704710B5D1
:1002A000002200E0521C835C8C5CA34201D1002B35
:1002B000F8D1D8B2E1B2401A10BD034611F8012BB3
:1002C00000F8012B002AF9D1184670472DE9FE4F9E
:1002D000804681EA0300C00F0C46009021F00041E7
:1002E00023F00045B8EB0200A94105D24046214663
:1002F00090461C460B46024623F00040104347D070
:10030000270DC7F30A00C3F30A510290401A019067
:1003100040286BDAC3F3130040F4801B0098924628
:1003200020B10023D2EB030A63EB0B0B0198594673
:10033000C0F14002504600F082F906460D46504694
:100340005946019A00F09AF910EB08006141002427
:1003500087EA115284EAE7731A4340D0009A62B3E5
:10036000019A012A4FEA075215DC001B61EB0201DA
:100370004FF0004202EA0752CDE90042001C41F56D
:10038000801132462B4600F09AF903B000F045B8D0
:1003900040462146F9E7001B61EB0201001C41F5D4
:1003A000801300185B412018A2F5001747EB0301EA
:1003B00040EAD570B6196D4111E06D084FEA360676
:1003C00045EAC0754FEA0752001B61EB0201001CB1
:1003D00041F5801149084FEA300000195141324679
:1003E0002B4603B000F01CB800F05AB90098012267
:1003F00040000023D0EB020263EBE073009821463B
:100400004FEAE074B8EB000061EB0401E9E783F028
:1004100000435BE781F0004158E730BCBDE8C08F86
:1004200030BCBDE8C04FFFF7DFBF2DE9FE4F81EACA
:10043000030404F0004421F0004100944FF0000B4D
:1004400023F0004350EA01045ED052EA03045BD07B
:10045000C3F30A54C1F30A552C44A4F2F3340194B3
:10046000A0FB0254C1F3130141F48011C3F3130341
:1004700043F4801301FB024400FB034E840A970AF5
:1004800044EA815447EA8357A4FB076802958D0A22
:1004900005FB07854FEA932C04FB0C542705029DAE
:1004A0004FEA065847EA1637B5EB08056EEB070C1E
:1004B000870E920E47EA811742EA8312A7FB0201D8
:1004C000B6EB0B0164EB00042B0D43EA0C335E1812
:1004D00044EB1C50DA465146E7FB0201C5F3130416
:1004E0004FEA0B3343EA14534FEA0432019C43EAC8
:1004F0000603A4F10C040294009CCDE900B400F0C2
:10050000DEF803B000F003B800200146F9E730BC84
:10051000BDE8C08F2DE9F04D81EA030404F0004BE3
:1005200021F0004514464FF0000A23F0004150EA44
:10053000050220D054EA01021DD0C5F30A57024635
:10054000C5F31303C1F31300C1F30A5640F4801539
:1005500043F48013A7EB0608101BD64608F2FD38BB
:1005600073EB050002D308F1010801E092185B412A
:10057000B8F1000F03DA00200146BDE8F08D00203D
:100580004FF48011064684460EE0171B73EB0507F7
:1005900005D3121B63EB050306434CEA010C490823
:1005A0004FEA300092185B4150EA0107EDD152EA60
:1005B000030012D082EA040083EA0501084305D053
:1005C000101BAB4106D20122002306E000224FF0AF
:1005D000004302E06FF0010253101AEB06004CEBEF
:1005E000085110EB0A0041EB0B01BDE8F04D00F0A3
:1005F00057B80EB540F2334102910021CDE9001108
:100600000A460B4600F05BF803B000BDC1F30A5286
:1006100010B5C1F3130140F2FF3341F480119A4247
:1006200001DA002010BD40F233439A42A2F2334275
:1006300003DC524200F012F810BD904010BD202A99
:1006400004DB203A00FA02F1002070479140C2F129
:10065000200320FA03F3194390407047202A04DB5B
:10066000203A21FA02F00021704721FA02F3D0402B
:10067000C2F120029140084319467047202A06DB48
:10068000CB17203A41FA02F043EAE07306E041FA60
:1006900002F3D040C2F1200291400843194670474E
:1006A00010B5141E73F1000408DA401C41F100017A
:1006B00092185B411A4301D120F0010010BD2DE9D1
:1006C000F04D92469B4611B1B1FA81F202E0B0FAC8
:1006D00080F220329046FFF7B2FF04460F4640EA10
:1006E0000A0041EA0B0153465A46084313D011460B
:1006F00053EA010019D0C8F140025046FFF7AEFF9F
:1007000005460E46504659464246FFF798FF0843B5
:1007100005D0012004E020463946BDE8F08D0020D8
:10072000054346EAE0762C4337430A986305E40A1A
:10073000A0EB08000022FD0A44EA47540A3002D523
:1007400000200146E9E7010510196941DDE9084586
:1007500000196941BDE8F04DA2E70000064C074DC5
:1007600006E0E06840F0010394E807009847103481
:10077000AC42F6D3FFF70EFD30DC020860DC020865
:1007800070B58C1810F8015B15F0070301D110F853
:10079000013B2A1106D110F8012B03E010F8016B80
:1007A00001F8016B5B1EF9D12B0705D40023521E03
:1007B0000DD401F8013BFAE710F8013BCB1A921C6B
:1007C00003E013F8015B01F8015B521EF9D5A14269
:1007D000D8D3002070BDFEE7014800F0C2B8000089
:1007E0008C03001030B590F8444004F01C0501243F
:1007F000AC40056C6C60046863608368102B036810
:1008000003D099600068C26030BD9A600068C16022
:1008100030BD704772B602A003F058FCFBE7000041
:100820006572726F72000000F0B5044600201E234E
:10083000012601E05B1E05D303F01F0706FA07F54A
:100840000D42F7D072B1082A0AD0102A05D0182A12
:1008500001D1072B06D30120F0BD082BFBD201E00C
:10086000102BF8D22368596121688B6823F0180394
:1008700013438B60F0BD000010B5040010D0607F02
:1008800020B900202077204600F030F80220607761
:10089000207938B1D4E902122046FFF7C5FF48B1EC
:1008A000012010BD2168104848612068816821F04E
:1008B000180181606079A0B1206921680861206811
:1008C0008168626921F0600111438160206881685C
:1008D000A26921F08001114381600120607700202E
:1008E00010BD4FF0FF30E8E7B71DC10408B5006840
:1008F0000649884208D10648816C41F480518164E0
:10090000806C00F48050009008BD00000030024070
:100910000010024010B590F825100024022903D0E1
:100920000421C16301241AE001680A6822F00E0262
:100930000A6001680A6822F001020A6090F8441017
:10094000036C01F01C02012101FA02F25A6080F8E6
:100950002510002180F82410816B01B188472046C2
:1009600010BDF0B4016C0C6801680D6890F844206B
:1009700002F01C06042202FA06F3234211D06B0790
:100980000FD50B689B0603D40B6823F004030B60A0
:1009900090F8441001F01C018A40016C4A60016B20
:1009A0001DE0022303FA06F727424FF0000C4FF038
:1009B000010218D0AF0716D50C68A40605D40C6840
:1009C00024F00A040C6080F8252090F8441001F00F
:1009D0001C018B40016C4B6080F824C0C16A002967
:1009E0001AD0F0BC08470823B340234214D02B0789
:1009F00012D50B6823F00E030B6090F84410036CC3
:100A000001F01C0102FA01F15960C26380F825204F
:100A100080F824C0416BE2E7F0BC704770B568B164
:100A20002B4C036814212B4AA34209D22A4C1C44A4
:100A3000B4FBF1F18900C0E910210BE0012070BD89
:100A4000234C64421C44B4FBF1F189004164204909
:100A500008390164022180F825101C6847F6F071FE
:100A60008C43D0E902152943D0E904563543294384
:100A700085692943C5692943056A294321431960CA
:100A80008168B1F5804F19D0036C0F21934202D1D8
:100A900052F8A83F02E00E4AA032136890F8444092
:100AA00004F01C04A1408B43136090F8443041686B
:100AB00003F01C0399401368194311600021C163BE
:100AC000012280F8252080F82410084670BD00001F
:100AD0000804024000000240F8FFFDBF70B5044664
:100AE00090F82400002501280CD0012084F824006F
:100AF00094F825600020012E06D084F824000225F9
:100B0000284670BD022070BD022684F82560E0638F
:100B10002068066826F0010606602046FFF762FEA0
:100B2000206B00282068016802D041F00E0106E029
:100B300021F0040101602068016841F00A010160B0
:100B40002068016841F001010160D9E770B50446F1
:100B500000F006F90546601C02D004480078044401
:100B600000F0FEF8401BA042FAD370BD1800001040
:100B70002DE9F04FDFF8AC9100230325A9F1040B18
:100B800085B04FF0010C0F2709F1040AABF1040EF8
:100B9000BFE000BF0CFA03F6324075D00C7904F0C8
:100BA0000304012C01D0022C1BD1846800945C004A
:100BB00005FA04F80494009C24EA08040094D1F88F
:100BC0000C80049C08FA04F8009C48EA0408C0F869
:100BD00008804468B4430E79C6F300169E4026434D
:100BE00046600C79E443A4070AD0C4684FEA43087E
:100BF00005FA08F6B4438E6806FA08F62643C6607E
:100C00000C7904F00304022C10D1DC0800EB8404FE
:100C10000294246A5E074FEAD66807FA08F6B443DE
:100C20000E6906FA08F62643029C266204684FEA1B
:100C3000430805FA08F6B4430E7906F0030606FAEF
:100C400008F6264306604C6814F4403F60D0364CEA
:100C5000266E46F001062666246E23F0030604F095
:100C600001040094314C34440294A4689E074FEA76
:100C7000167807FA08F6B443B0F1904F05D02C4E21
:100C8000B04204D1012612E042E000260FE0294ED6
:100C9000B04201D102260AE0274EB04201D103261C
:100CA00005E0264EB04201D1042600E0072606FAF0
:100CB00008F62643029CA660D9F800604C46D1F89D
:100CC000048096435FEAC82800D516432660DAF808
:100CD00000405646D1F8048094435FEA882800D546
:100CE00014433460DBF800405E46D1F8048094433E
:100CF0005FEA883800D514433460DEF80040764659
:100D0000D1F8048094435FEAC83800D514433460B6
:100D10005B1C0A6832FA03F47FF43CAF05B000F0C4
:100D20000FB800000804014000100240000001401C
:100D30000004004800080048000C0048001000486B
:100D400030BCBDE8C08F426921EA02030A4043EA91
:100D50000241816170470AB18161704781627047C9
:100D600001488068704700001800001090F841208A
:100D7000202A24D190F84020012A20D0012280F896
:100D80004020242280F841200268136823F00103E8
:100D900013600268136823F48053136002681368B9
:100DA0000B43136001680A6842F001020A602021C7
:100DB00080F84110002180F840100846704702205A
:100DC000704790F84120202A22D190F84020012A33
:100DD0001ED0012280F84020242280F841200268A1
:100DE000136823F0010313600268136823F470632F
:100DF00043EA0121116001680A6842F001020A60B9
:100E0000202180F84110002180F8401008467047EA
:100E10000220704770B5040004D094F8410000250A
:100E200010B106E0012070BD84F84050204600F06B
:100E300079F9242084F841002068016821F001013B
:100E400001606068216820F0706008612068816836
:100E500021F400418160E0680128A06807D040F4D7
:100E6000044021688860E068022803D006E040F46E
:100E70000040F6E721684FF4006048602068416850
:100E8000114A114341602068C16821F40041C160EA
:100E9000D4E904010843A16940EA01202168C8603F
:100EA000D4E907010843216808602068016841F01F
:100EB000010101606564202084F84100256384F805
:100EC0004250002070BD0000008000022DE9F84F64
:100ED000044690F84100DDF828A01F4690468B4656
:100EE00020287ED194F8400001287AD0012084F88F
:100EF0004000FFF735FF0646012200901923D10379
:100F0000204601F025FEE0BB222084F8410010209D
:100F100084F8420000256564C4F824806785656311
:100F2000618D3148FF274FF080784FF00079FF291D
:100F300003D927853A46009039E0618D21850090DC
:100F40003AE05946204601F0EBFD13E001F02CFE9B
:100F5000B8B92068406A616A0870606A401C6062C3
:100F6000208D401E80B22085618D491E6185618D76
:100F700001B168B1608D3246002851462046E5D166
:100F800000E002E001F05EFED0B1012000F030B8D8
:100F90005346002280212046009601F0D9FD00280A
:100FA000F3D1608DFF2804D927853A460095434642
:100FB000C7E7608D2085009594F828204B46C0E750
:100FC00021682020C86121684A68084B1A404A609D
:100FD00084F8410084F8425084F840500020D5E75E
:100FE000FFE70220D2E700000024008000E800FEB6
:100FF00018BCBDE8E08F00002DE9F84F044690F8DA
:101000004100DDF828A01F4690468B4620287ED15F
:1010100094F8400001287AD0012084F84000FFF7BE
:101020009FFE0646012200901923D103204601F0BD
:101030008FFDE0BB212084F84100102084F842009D
:1010400000256564C4F8248067856563618D314837
:10105000FF274FF080784FF00079FF2903D92785CB
:101060003A46009039E0618D218500903AE059467A
:10107000204601F055FD13E001F00AFEB8B9606AA0
:10108000216800788862606A401C6062608D401E42
:101090006085208D401E80B22085618D01B168B1D0
:1010A000608D3246002851462046E5D100E002E03E
:1010B00001F0C8FDD0B1012000F030B85346002245
:1010C00080212046009601F043FD0028F3D1608D79
:1010D000FF2804D927853A4600954346C7E7608D27
:1010E0002085009594F828204B46C0E721682020F1
:1010F000C86121684A68084B1A404A6084F8410078
:1011000084F8425084F840500020D5E7FFE70220E1
:10111000D2E700000020008000E800FE18BCBDE817
:10112000E08F000030B59DB00446142117A8FFF7EA
:10113000A4F85C216846FFF7A0F8174920688842A8
:1011400027D14020002500900C95684600F0A2F9B8
:1011500008B1FFF75FFB114CE06C40F00200E06467
:10116000E06C17A900F002001C90C020179012201C
:10117000CDE9180503201A9004201B900848FFF7BA
:10118000F7FCA06D40F40010A065A06D00F4001005
:101190001C901DB030BD0000005400400010024003
:1011A0000004004802488168027811448160704759
:1011B0001800001010B50024032000F089F80F205B
:1011C00000F008F808B1012401E000F03DF82046E5
:1011D00010BD000000B5014687B00022372000F0A6
:1011E00057F8372000F046F81348816D41F0200190
:1011F0008165806D05A900F020000690684600F02A
:1012000037FB00F055FB0D490D4AB0FBF1F10D48DD
:10121000491E0260416040F2E7320021C0E903212B
:10122000816001F051F910B1012007B000BD0548FF
:1012300001F09AF9F9E700000010024040420F0067
:1012400000140040A4040010094808B5016E41F0E4
:1012500001010166016E01F001010091816D41F013
:1012600080518165806D00F08050009008BD0000C5
:1012700000100240002809DB00F01F02012191400C
:101280004009800000F1E020C0F800117047000024
:10129000F0B40E4B1B680C46C3F30223C3F10705E1
:1012A000042D00D90425191D072901D2002300E0CF
:1012B000DB1E012606FA05F1491E214099409E4099
:1012C000761E16403143F0BC02F008BF0CED00E082
:1012D000064900F0070208684FF6FF03184040EA8D
:1012E0000220034A10430860704700000CED00E044
:1012F0000000FA051649B0F5007F0868C0F34120E8
:1013000009D0022805D0086820F4C06040F480604D
:101310000860002070470128FBD0086820F4C060F6
:1013200040F4007008600B483222006850430A4ABB
:10133000B0FBF2F0401C00E0401E4A69520501D5A6
:101340000028F9D148694005E3D503207047000023
:10135000007000402400001040420F000248006866
:1013600000F4C0607047000000700040F8B504460B
:10137000FFF7F6FC064624B194F84100002510B1B1
:1013800009E00120F8BD84F84050204600F042F802
:1013900041F28830A06420680168A2686FF0FF0302
:1013A00021F4706103EB022211430160A06C0090F4
:1013B000334600222021204601F052FF10BBE26993
:1013C000E16823791143226A42EA036211432268E9
:1013D00013680E4E334019431160D4E905121143CE
:1013E000226853680A4E3340268A43EA064319436B
:1013F000516021680A6842F001020A6065640121B7
:1014000084F8411084F84050F8BD00002FFFFF0021
:10141000FEF8E0FFF0B587B0044614216846FEF7F9
:101420002CFF1949206888422CD11848016D41F4DD
:1014300080710165016D01F480710591C16C41F00D
:101440000101C164C16C01F001010591C16C41F061
:101450000201C164C06C022400F002000590C020AB
:10146000002503260A278DE8F10069464FF09040D9
:10147000FFF77EFB40F603408DE8F1006946044823
:10148000FFF776FB07B0F0BD001000A0001002408F
:10149000000400482DE9F84F044600270088A84DB5
:1014A0003E46000515D5606C60B1B0F5000F04D064
:1014B000B0F5400F2BD001270AE0E86840F48030F7
:1014C000E86024E00021201D01F002FF07001ED08B
:1014D0003E46206880033AD5A86D4FF00008C00052
:1014E00009D4A86D40F08050A865A86D4FF00108A0
:1014F00000F080500090DFF84CA2DAF8001041F4C0
:101500008071CAF80010FFF72BFC814610E0D5F877
:101510008800616C20F440000843C5F88800D8E7D3
:10152000FFF71EFCA0EB0900022801D9032705E004
:10153000DAF80000C005F3D5002F7DD04FEA07068A
:10154000B8F1000F03D0A86D20F08050A865207876
:10155000C00707D0D5F88800216A20F003000843AF
:10156000C5F888002078800707D5D5F88800616A1B
:1015700020F00C000843C5F888002078400707D504
:10158000D5F88800A16A20F030000843C5F888002B
:101590002078800607D5D5F88800E16A20F44060FD
:1015A0000843C5F888002088800507D5D5F888004D
:1015B000E16B20F440200843C5F8880020884005EE
:1015C00007D5D5F88800216C20F440100843C5F8F1
:1015D00088002078400607D5D5F88800216B20F4D4
:1015E00040500843C5F888002078000607D5D5F894
:1015F0008800616B20F440400843C5F888002088CB
:10160000C00507D5D5F88800A16B20F44030084309
:10161000C5F8880020684FF0006700034FF080682D
:1016200050D5D5F88800A16C20F040600843C5F87B
:101630008800A06CB84200E005E03BD1E86840F4C7
:101640008010E8603EE0D5F8900010F4407014D0AF
:10165000A16D814211D0D5F89000D5F8901020F4FA
:10166000407041F48031C5F89010D5F8901021F405
:101670008031C5F89010C5F89000C00711D0FFF771
:101680006FFB074641F2883907E000BFFFF768FBB0
:10169000C11B494501D9032652E7D5F890008007C0
:1016A000F4D5D5F89000A16D20F440700843C5F83A
:1016B000900045E7404505D10121201D01F008FEBD
:1016C00000B106462068400317D5D5F88800E16CC4
:1016D00020F040600843C5F88800E06CB84204D1AF
:1016E000E86840F48010E86007E0404505D101213A
:1016F000201D01F0EDFD00B106462088400411D503
:10170000D5F88800216D20F040500843C5F88800C6
:10171000206DB0F1805F05D10221201D01F0D8FDC0
:1017200000B106462088000406D555F8880F616D83
:1017300020F0804008432860304600F005B80000E3
:10174000001002400070004018BCBDE8E08F0000AF
:101750002DE9F0470F46050058D0404E306800F0A4
:101760000700B84209D2306820F0070038433060E3
:10177000306800F00700B84248D12878384CC007DC
:101780002CD06868032811D0022812D0216898B1A3
:10179000490500293ADAA16821F003010143A1605B
:1017A000FFF7DEFA804641F2883910E021688901AE
:1017B000EFE721688903ECE78907EAE7FFF7D0FA4A
:1017C000A0EB0801494502D90320BDE8F087A068D5
:1017D000696800F00C00B0EB810FEFD1287880072A
:1017E00005D5A068A96820F0F0000843A060306823
:1017F00000F00700B8420BD9306820F007003843EA
:101800003060306800F00700B84201D00120DCE70A
:101810002878400705D5A068E96820F4E06008430F
:10182000A0602878000706D5A068296920F46050D8
:1018300040EAC100A06000F05FF8A168094AC1F366
:101840000311515C01F01F01C840074908600748B7
:101850000068BDE8F047FFF7BDBC00000020024073
:101860000010024034950208240000101C000010F3
:101870000F2202600C4A936803F0030343609368ED
:1018800003F0F0038360936803F4E063C36092683D
:101890004FF4E06303EAD20202610448006800F0FA
:1018A000070008607047000000100240002002405E
:1018B0000548064900688968054AC1F30221515C60
:1018C00001F01F01C84070472400001000100240C2
:1018D000749502080548064900688968054AC1F3FD
:1018E000C221515C01F01F01C84070472400001064
:1018F000001002407495020870B52549002318466F
:101900008A68CC6812F00C0204F00306214C4FEAFE
:10191000640509D00C2A05D0042A32D0082A00D147
:10192000284670BD012E10D10B681B0704D4D1F8D6
:101930009430C3F3032302E00B68C3F30313164E82
:1019400056F82330DAB10C2AEBD1C86800F0030056
:10195000022818D0032818D01846CA68CB68C2F3EA
:101960000212C3F306234343521CB3FBF2F2C868CE
:10197000C0F34160401C4000B2FBF0F070BD18465F
:1019800070BD204670BD2046E7E72846E5E7000029
:10199000001002400024F400449502082DE9F843A9
:1019A00004006FD0FE4DA86800F00C06E86800F057
:1019B00003072078C00664D576B10C2E01D1012F23
:1019C0000AD0A069002828687AD040F00100286079
:1019D000FFF7C6F980465DE02868800702D5A06958
:1019E0000028DED0216A2868000703D5286800F0A7
:1019F000F00004E0D5F89400F02202EA10108142D1
:101A000016D9084601F0FAFC00283BD1286840F0BE
:101A1000080028602868216A20F0F0000843286048
:101A20006868E16920F47F4040EA0120686016E0C0
:101A3000286840F0080028602868216A20F0F0003B
:101A4000084328606868E16920F47F4040EA01208B
:101A5000686026B9206A01F0D1FC0028D5D1FFF7D3
:101A60004BFFA968CF4AC1F30311515C01F01F017C
:101A7000C840CD490860CD480068FFF7ABFB00289F
:101A80007ED12EE0CAE000BFFFF76AF9A0EB0800A4
:101A9000022876D828688007F6D5286840F0080024
:101AA00028602868216A20F0F000084328606868F0
:101AB000E16920F47F4040EA0120686011E0FFE71F
:101AC00020F001002860FFF74BF9804606E000BFD8
:101AD000FFF746F9A0EB08000228DAD8286880074B
:101AE000F6D42078C00740D0082E18D00C2E01D193
:101AF000032F14D06068B0F5803F17D0B0F5A02F49
:101B0000286817D020F480302860286820F48020CE
:101B100028606068E0B1FFF723F9804614E0286888
:101B2000800322D56068002878D01EE0286840F441
:101B30008030EDE740F480202860F7E7FFF710F9E8
:101B4000A0EB08006428A4D828688003F6D50CE030
:101B5000FFF706F9804605E0FFF702F9A0EB080061
:101B6000642896D828688003F6D4207880073BD56F
:101B7000042E11D00C2E01D1022F0DD0E06801E00F
:101B8000B6E1FFE0002828681ED040F4807028608D
:101B9000FFF7E6F807460CE0286840050CD5E0683A
:101BA0000028C1D008E000BFFFF7DAF8C01B022808
:101BB00093D828684005F7D56868217C20F0F85054
:101BC00040EA016068600FE020F480702860FFF751
:101BD000C7F8074605E000BFFFF7C2F8C01B0228A0
:101BE000B1D828684005F7D42078000729D5606966
:101BF0000028D5F8940012D040F00100C5F89400F8
:101C0000FFF7AEF8074604E0FFF7AAF8C01B02286A
:101C100099D8D5F894008007F6D512E02BE120F092
:101C20000100C5F89400FFF79BF8074605E000BFE8
:101C3000FFF796F8C01B022885D8D5F894008007D6
:101C4000F6D42078400766D5A86D0027C00008D4D8
:101C5000A86D40F08050A865A86D012700F0805065
:101C6000009053480168C90512D40168814641F4C7
:101C700080710160FFF774F8804605E0FFF770F8A7
:101C8000A0EB080002287DD8D9F80000C005F5D5E2
:101C9000A068012816D00528D5F8900017D020F0AC
:101CA0000100C5F89000D5F8900020F0040000BFB6
:101CB000C5F89000A06841F28839C0B1FFF750F82C
:101CC00080460FE0D5F8900040F00100F0E740F0CA
:101CD0000400C5F89000F5E7FFF742F8A0EB080113
:101CE00049454FD8D5F890008007F5D50EE0FFF7AD
:101CF00037F8804606E000BFFFF732F8A0EB080196
:101D000049453FD8D5F890008007F5D41FB1A86D9C
:101D100020F08050A8652078800628D5606A0028C9
:101D2000D5F8980012D040F00100C5F89800FFF7F0
:101D300017F8074605E000BFFFF712F8C01B02289E
:101D400020D8D5F898008007F6D510E020F00100E3
:101D5000C5F89800FFF704F8074604E0FFF700F81D
:101D6000C01B02280ED8D5F898008007F6D4A06AC8
:101D7000A8B1022824D00C2E7DD0286820F08070D5
:101D8000286000E0B3E02868000103D4E86820F090
:101D90000300E860E86807490840E8600CE09FE05D
:101DA0000010024034950208240000101C000010AE
:101DB00000700040FFFFEEFEFEF7D2FF044699E000
:101DC000E868E26A00F00301914226D1216B00F03D
:101DD00070020901103991421FD1626B00F4FE417B
:101DE000B1EB022F19D194F8382000F07841B1EB13
:101DF000C26F12D1A18F00F4C00249084905A1F5B4
:101E00000011914209D194F8401000F0C0604908D7
:101E10004906A1F1007181424BD00C2E6FD0286889
:101E200040016CD4286820F080702860FEF798FF8D
:101E3000064604E0FEF794FF801B022857D8286866
:101E40008001F7D4F4E90B016FF00F0202EB0111EE
:101E50000843218A5204490802EB4151A26841EA31
:101E600002210843217D4FF07E42490802EB416187
:101E70000843217B00E042E040EAC160E968214A72
:101E800011400843E860286840F080702860E868E6
:101E900040F08070E860FEF763FF044605E000BF95
:101EA000FEF75EFF001B022821D828688001F7D5C5
:101EB00023E02868800120D4286840F080702860E2
:101EC000E86840F08070E860FEF74AFF044604E0EE
:101ED000FEF746FF001B022809D828688001F7D5C5
:101EE0000BE000BFFEF73CFF001B022802D90320D5
:101EF000BDE8F88328688001F4D40020F8E70120C9
:101F0000F6E700008C809D017047000038B501683D
:101F100004464A688868C043430606D5C30704D10F
:101F2000D3435B0601D4E16C05E0830708D4D343B7
:101F30001B0605D4216D01B02046BDE8304008479E
:101F4000830603D5430601D5C30551D4D3439B066D
:101F50004ED443060AD494F85D30032B49D0236E47
:101F600043F004032366CB688B680093830609D48F
:101F7000236E43F0010323668B6800930B6823F004
:101F800040030B60C00506D4206E40F008002066B8
:101F9000206880680090206E002829D02068416861
:101FA00021F0E0014160012084F85D00900701D438
:101FB000D00722D02068416821F003014160114D13
:101FC000A06D40B18563A06DFEF7A4FC18B1206E32
:101FD00040F040002066606D002809D08563606D88
:101FE000FEF798FC002803D0206E40F040002066E9
:101FF00038BDC8688868009038BD2046FFF784FF68
:1020000038BD00008534000870B5040009D0606A4E
:10201000002540B125616561A56294F85D0040B17D
:102020000CE0012070BD6068B0F5827FF4D0E561FE
:10203000F2E784F85C50204600F056F8022084F85D
:102040005D002068016821F040010160E1684FF403
:10205000E062914201D9002001E04FF48050B1F5D7
:10206000706F02D0914200D0A562A188228901F44C
:10207000827102F404421143227C02F002021143F5
:10208000227D02F001021143228B02F400721143FF
:10209000227F02F03802114394F8202002F08002DF
:1020A0001143228D02F40052114322681160A1698C
:1020B000042202EA114194F8242000F4805002F036
:1020C0001002114394F8342002F008021143A2894F
:1020D00002F47062114301432068416025660120CB
:1020E00084F85D00002070BD30B587B0054614212E
:1020F0006846FEF7C2F82149286888423CD1204949
:10210000086E40F480500866086E00F48050059018
:10211000C86C40F00200C864C86C694600F0020058
:102120000590282000900220019002900320039047
:10213000052004901348FEF71BFD144C12480021A3
:102140002060012060601020C4E902018020C4E901
:102150000401A161E16120462162FEF75FFC08B144
:10216000FEF758FB6C65002211462320A562FFF79D
:102170008FF82320FFF77EF807B030BD0030014014
:102180000010024000040048300002408C030010A0
:102190002DE9F84F044690F85C0000271D461646CE
:1021A000894601280DD04FF0010B84F85CB0FEF792
:1021B000D7FD804694F85D00BA46012804D0022776
:1021C000A4E0022000F0A8B8B9F1000F74D0002EEE
:1021D00072D0032084F85D00C4F860A0C4F8389081
:1021E000A687E687C4F840A0A4F844A0A4F846A0B7
:1021F000C4F850A0C4F84CA0A068B0F5004F09D1B5
:102200002068016821F0400101602068016841F404
:102210008041016020680168490603D4016841F0EB
:1022200040010160E068B0F5E06F606823D908B153
:10223000012E1CD1A06B21680088C86006E02068D0
:102240008168890709D5A16B0988C160A06B801CD2
:10225000A063E08F401EE08709E0FEF781FDA0EB60
:102260000800A84202D3681C01D046E0ADB3E08F5D
:102270000028E4D136E008B1012E30D1E08F0128EA
:10228000A06B03D921680088C8600FE0216800783E
:10229000087314E0E08722E020688168890714D57C
:1022A000E18F0129A16B08D90988C160A06B801C4E
:1022B000A063E08F801EEDE727E009780173A06B33
:1022C000401CA063E08F401EE4E7FEF749FDA0EB51
:1022D0000800A84202D3681C01D00EE06DB1E08F67
:1022E0000028D9D142462946204601F01CF908B100
:1022F00020202066A06810B105E0032706E02068D2
:10230000C16880680090206E00B1012784F85DB03C
:1023100084F85CA0384655E718BCBDE8E08F0000A3
:102320002DE9F041044690F85C000026012809D010
:10233000012784F85C7094F85D000025012804D022
:10234000022670E00220BDE8F08199B192B103202D
:1023500084F85D002566A163A287E2872564256570
:10236000E564A4F84450A4F84650A068B0F5004FC6
:1023700002D00BE0012656E02068016821F0400100
:1023800001602068016841F480410160616D284866
:102390000863616D2748C862616D27484863606DB6
:1023A00085632068416821F480414160E068B0F5B0
:1023B000E06F10D8606D8069B0F5806F0BD1E08F51
:1023C000C0072068416816D041F480414160E08F29
:1023D00007EB5000E087E38F2268A16B0C32606D41
:1023E000FEF77CFB68B1206E40F0100020660126ED
:1023F00084F85D7017E021F480414160E08F40086F
:10240000E8E720680168490603D4016841F040010B
:1024100001602068416841F0200141602068416806
:1024200041F00201416084F85C5030468BE70000C7
:10243000B9340008C3340008973400080068034921
:10244000884202D1024900200870704700300140E4
:10245000000000107047704770477047F0B590F863
:102460003C20012A29D0012480F83C40022280F837
:102470003D2003685A689D68114EB34203D122F48F
:1024800070074A683A4322F070070A683A435A6074
:102490000268B24205D0B2F1804F02D0094B9A4295
:1024A00004D1896825F080031943916080F83D408C
:1024B000002180F83C100846F0BD0220F0BD00006D
:1024C000002C01400040014010B5040003D094F8F6
:1024D0003D0010B107E0012010BD002084F83C0051
:1024E000204600F023F8022084F83D00211D2068DA
:1024F00001F0C8FA012084F8480084F83E0084F80E
:102500003F0084F8400084F8410084F8420084F8D9
:10251000430084F8440084F8450084F8460084F8B9
:10252000470084F83D00002010BD000008B5006899
:102530000B49884212D10B48816D41F01001816531
:10254000806D002200F01000009011463620FEF74A
:102550009FFEBDE808403620FEF78CBE08BD000097
:10256000001000400010024090F83D10012901D0F9
:1025700001207047022180F83D100168CA6842F0CE
:102580000102CA6000680B49884205D0B0F1804F53
:1025900002D00949884207D18168084A11400629BA
:1025A00006D0B1F5803F03D0016841F00101016020
:1025B00000207047002C014000400140070001004E
:1025C000704770B50446006801694FF00005C943C3
:1025D000890715D4C168C943890711D4E91E01616F
:1025E00001202077206880698007204602D0FFF70D
:1025F000E7FF04E000F0A7F8204600F0A5F82577F3
:1026000020680169C943490717D4C168C94349070C
:1026100013D46FF0040101610220207720688069E3
:1026200010F4407F204602D0FFF7CAFF04E000F01C
:102630008AF8204600F088F8257720680169C943A8
:10264000090716D4C168C943090712D46FF00801FD
:102650000161042020772068C0698007204602D0ED
:10266000FFF7AEFF04E000F06EF8204600F06CF8D3
:10267000257720680169C943C90617D4C168C943D1
:10268000C90613D46FF0100101610820207720687B
:10269000C06910F4407F204602D0FFF791FF04E0AC
:1026A00000F051F8204600F04FF8257720680169C6
:1026B000C943C90708D1C168C943C90704D1891EE4
:1026C0000161204600F042F820680169C94309060B
:1026D00009D4C168C943090605D46FF080010161BE
:1026E0002046FFF7B9FE20680169C943C90509D42E
:1026F000C168C943090605D46FF4807101612046A1
:10270000FFF7A9FE20680169C943490609D4C168D9
:10271000C943490605D46FF040010161204600F02D
:102720003BF820680169C94389060BD4C168C943D5
:10273000890607D46FF0200101612046BDE8704092
:10274000FFF78BBE70BD70477047000010B5006882
:102750000E49884203D1BDE81040FEF723BD0C4965
:10276000884211D1012020F087FD0A484168491CA8
:102770004160C82091FBF0F200FB1210002803D149
:10278000BDE8104026F040BB10BD00000014004022
:102790000010004010000010704710B50446C06FD4
:1027A000202820D181B17AB194F8740001281AD080
:1027B000012084F874002066204601F0D1FB002837
:1027C00003D1216E012901D0012010BD2268102102
:1027D0001162226852E8001F41F0100142E8001324
:1027E000002BF6D110BD022010BD000070B50F4DBA
:1027F0000F4C2878512807D10121A06819F014FF47
:102800000121E0681AF0F8FA2878522807D101214E
:10281000E06819F009FF0121A0681AF0EDFABDE89F
:102820007040012201490348FFF7B7BF10000010B4
:102830005C02001020040010704710B5040002D0A4
:10284000A06F10B107E0012010BD002084F87400D3
:10285000204600F025F82420A0672068016821F0B8
:1028600001010160204601F07BFA0128ECD0606A8A
:1028700010B1204601F03CF92068416821F49041F4
:1028800041602068816821F02A0181602068016828
:1028900041F0010101602046BDE8104001F08CB913
:1028A00010B59EB00446142117A8FDF7E6FC5C2184
:1028B0006846FDF7E2FC18492068884229D10120CA
:1028C0000024009008946846FEF7E4FD08B1FDF787
:1028D000A1FF1248016E41F480410166016E01F4CE
:1028E00080411C91C16C41F00101C164C06C17A909
:1028F00000F001001C904FF4C06017900220CDE959
:10290000180403201A9007201B904FF09040FEF708
:102910002FF91EB010BD0000003801400010024029
:10292000704770472DE9F8430446806F1F461646EE
:102930000D4620284FD1CDB1C6B194F874000128BE
:1029400049D0012084F874004FF00008C4F880805A
:102950002120A067FEF704FAA4F850608146A4F88D
:102960005260A068B0F5805F03D004E00120BDE8AC
:10297000F883206928B12E465FF0000584F8748042
:1029800010E00026FAE78021204601F03BFBB8B9B1
:10299000C6B116F8010B21680885B4F85200401E34
:1029A000A4F85200B4F852004B464FF000020097D2
:1029B0000028E8D14FF04001204601F023FB30B160
:1029C0000320D4E735F8020BC0F30800E3E720202A
:1029D000A0670020CBE70220C9E7FEE701688A690B
:1029E000D243920701D400228A6200688169C943F8
:1029F000C90703D0816941F001018161704700007E
:102A00002DE9F047044600688A461746816900258B
:102A10002E46C906A9464FF0200849D51021C161AC
:102A200037E000BFBAF1FF3F33D0FEF799F9C11B81
:102A3000514502D8BAF1000F2BD12068416894F8B3
:102A4000422001F480418369DB431B041CD4B1F5AF
:102A5000804F19D0202A17D0416841F4804141604D
:102A6000FEF77EF907460FE0FEF77AF9C01B19283A
:102A70000AD9606C40F02000606484F8418084F8DA
:102A8000429084F84090012520688069C043800608
:102A9000EAD420688069C043800602D5002DC1D0E9
:102AA00003E015B92168C1F81C8046F00406012531
:102AB00021688869C20505D54FF4807246F0010689
:102AC000CA610125410509D522684FF4806146F0AD
:102AD0000806D1610125800502D40AE0800507D5EA
:102AE00021684FF4007046F00206C861012500E03D
:102AF0008DB12046FFF772FF54F8240B4168074A56
:102B000011404160206A3043206284F81D8084F8BF
:102B10001E9084F81C902846BDE8F08700E800FE6F
:102B200010B5C1F3090141EA02410268029C194350
:102B30002143506821F000414FF4806303EA54536D
:102B4000024C234398430843506010BDFF63FF03CA
:102B50002DE9F0411D4617460E460446DDF8188063
:102B600008E0681C06D0FEF7FBF8A0EB0800A842BE
:102B70000BD855B12068806936EA000012D00020D9
:102B8000B842EED00020BDE8F08154F8440F40F088
:102B9000200044F80409202060700020A0702070FC
:102BA0000120F0E70120EBE72DE9F04120269046D7
:102BB0000F460446002530E0424639462046FFF7DE
:102BC0001FFF10BB20688069C04380061ED42068A8
:102BD0008169C943490701D4218D19BB8169C94362
:102BE000C90604D41021C1610420606400E065645A
:102BF0002068C66120684168114A1140416084F82C
:102C0000416084F8425084F8405016E0FEF7A8F87E
:102C1000A0EB0800B84208D83FB120688069C043E3
:102C20004007C9D40020BDE8F08154F8440F40F0BB
:102C3000200044F80409667025700120F3E70000C5
:102C400000E800FE70B516460D4604460DE032461B
:102C500029462046FFF7D4FE08B1012070BDFEF7DB
:102C60007FF8801BA84207D835B120688069C0432F
:102C70008006ECD4002070BD54F8440F40F02000D2
:102C800044F80409202060700020A0702070E4E760
:102C900070B516460D4604460FE0324629462046DA
:102CA000FFF7AEFE08B1012070BD681C05D0FEF72D
:102CB00057F8801BA84207D835B120688069C04307
:102CC0008007EAD4002070BD54F8440F40F0200083
:102CD00044F80409202060700020A0702070E2E712
:102CE0000A4810B508490160002101714171416134
:102CF000816101210162FDF7BFFD002803D0BDE81D
:102D00001040FDF787BD10BD003002406C0200107E
:102D1000094808B5816C41F001018164806C002292
:102D200000F00100009011460D20FEF7B1FABDE859
:102D300008400D20FEF79EBA001002402DE9F04138
:102D400086B014216846FDF798FA3048C16C41F00E
:102D50000401C164C16C01F004010591C16C41F032
:102D60008001C164C16C01F080010591C16C41F02A
:102D70000101C164C16C01F001010591C16C41F018
:102D80000201C164C06CDFF8888000F00200059089
:102D900001224FF402514046FDF7DDFF1D4F4FF475
:102DA0000046002231463846FDF7D5FF002240217B
:102DB0004046FDF7D0FFB0100124CDE90004022009
:102DC0000025CDE9020569464046FDF7D1FECDE973
:102DD000006469463846CDE90245FDF7C9FE40204A
:102DE000CDE9000469464046CDE90245FDF7C0FE45
:102DF0008020CDE900040320CDE902406946404629
:102E0000FDF7B6FE06B0BDE8F081000000100240FC
:102E10000008004800040048134810B5114901603B
:102E20001249416000210122C0E9021201614161A1
:102E30008161C1610162FDF7EDFF08B1FDF7EAFCB8
:102E400000210948FDF792FF08B1FDF7E3FC0021DE
:102E50000548FDF7B6FF002803D0BDE81040FDF798
:102E6000D9BC10BD005400409002001091297000A0
:102E70000D4810B50B49016000210422C0E9011280
:102E80001022C260182202615201C0E90521C1610D
:102E90000162FEF76BFA002803D0BDE81040FDF791
:102EA000B9BC10BD001000A0DC020010124810B523
:102EB000104901604FF48271416000214FF4E062DB
:102EC000C0E9021202220261012242615202C0E9FB
:102ED0000621016207224162C0E90A1201634163CF
:102EE000FFF792F8002803D0BDE81040FDF792BC30
:102EF00010BD000000300140280300103EB5002442
:102F00001048009401940E49029401604F21C0E9D9
:102F100001144FF47A71C16080218161FFF7D4FA06
:102F200008B1FDF777FC102000906946029405482F
:102F3000FFF794FA002801D0FDF76CFC3EBD0000BD
:102F400000100040D40300100D4810B50B4901607B
:102F50004FF4E1314160002181600C22C160C0E981
:102F600004128161C16101624162FFF766FC0028C1
:102F700003D0BDE81040FDF74DBC10BD0038014046
:102F800020040010FEE7FEE708B500F0ACF800F002
:102F900027F800F03FF80F494880A0F56F41163937
:102FA0000ED100F073F80023C3221946C02000F0B0
:102FB000DDF830208DF800000121684600F010F99E
:102FC000054881688906FCD40021C161034941613B
:102FD00008BD00000A000010001000A0EBEF180F61
:102FE00010B5022000F02EF80446800706D400F049
:102FF0004DF844F00201022000F056F800230122AF
:103000001946382000F0B2F801490120087010BDBF
:103010000A0000100A4808B500784FF0000308B114
:10302000EF2200E065220021902000F09FF80221AD
:10303000684600F059F8BDF8000040BA08BD00002D
:103040000A00001008B500218DF80010012803D0F7
:10305000022803D0032803D0052002E0352000E039
:10306000152009494FF00003097809B1C32200E097
:103070004122002100F07AF80121684600F034F87E
:103080009DF8000008BD00000A00001005484FF040
:103090000003007808B1032200E00122002106208D
:1030A00000F064B80A00001013B5012804D002280B
:1030B00009D0032809D0012009494FF000030978FD
:1030C00029B1C32204E03120F6E71120F4E74122C0
:1030D000002100F04BF8012101A800F081F81CBD8F
:1030E0000A000010704770472DE9F0411E4C0D4654
:1030F00006466269A1691C4F20376B1E236122F0CE
:103100004062E36842F0806243F00203E360626180
:10311000A1614FF6FF780AE042460121062000F047
:10312000C3F800281ED1397806F8011B6D1E002D4A
:10313000F2D1002816D1206840F0040020604546F6
:1031400042460121022000F0AFF800280AD1E068D1
:1031500040F00200E0602A46BDE8F0410021202056
:1031600000F0A2B8BDE8F081001000A02DE9F04306
:1031700014460E46804600254FF6FF791F464A4604
:103180002946202000F090F8002825D1A00945EA22
:10319000006040EA8740C4F3011140EA0130C4F303
:1031A000810140EA812004F003010C4D40EA012036
:1031B00040EA0800686114F00C0F00D0AE61A0096D
:1031C0000AD14A460121022000F06EF8002803D1FE
:1031D000E86840F00200E860BDE8F083001000A05D
:1031E0002DE9F0411D4C0D4606466169A2691B4F51
:1031F00020376A1E2261E26821F0406142F002023B
:10320000E26061614FF6FF780AE042460121042046
:1032100000F04AF800281ED116F8011B39706D1E07
:10322000002DF2D1002816D1206840F00400206063
:10323000454642460121022000F036F800280AD116
:10324000E06840F00200E0602A46BDE8F04100215D
:10325000202000F029B8BDE8F0810000001000A097
:103260002DE9F041984616460F460446069D08E0B3
:10327000681C06D0FDF774FDA0EB0800A8420AD830
:103280004DB120688068384000D00120B042EFD1B5
:103290000020BDE8F081042084F84100606C40F01B
:1032A000010060640120F4E710B5084C06E0A36853
:1032B000034000D001238B4203D0521E002AF6D1D6
:1032C00002E00AB1002010BD012010BD001000A0D6
:1032D0002DE9F041444C05468846E0680026810708
:1032E00028680DD0E16801F00301814216D1A8B130
:1032F000E0686968C0F30210401C88420ED120E0EB
:10330000012804D0022805D0032807D108E021684D
:10331000890701E021684905002907DB01265FE0F4
:103320002168890302D421684903F5E7E1686A68E6
:103330006FF00F0321F0730103EB021211430143FD
:10334000E160206820F080602060FDF709FD0746FD
:1033500005E000BFFDF704FDC01B022837D8206838
:103360000001F7D4B8F1000F18D0B8F1010F1DD04B
:10337000287D4FF07E41400801EB4060A96840EA9B
:1033800001202169194A114008432061206840F05A
:1033900080602060FDF7E4FC07461AE0A868297BFE
:1033A000000240EAC1602169114AECE7288A11490C
:1033B000400801EB4050A96840EA012021690E4A0B
:1033C000E1E700BFFDF7CCFCC01B022801D90326B2
:1033D00006E020680001F5D52069A969084320614D
:1033E0003046BDE8F081000000100240FF80FFF988
:1033F000FF80FF070000E0FFFF809FFFF8B51C4D36
:1034000006460024A86DC00002D5FDF7A7FF0DE019
:10341000A86D40F08050A865A86D00F08050009025
:10342000FDF79CFFA96D21F08051A965B0F5007FE3
:1034300004D0802E07D94FF003040AE0802E08D96B
:10344000A02E01D804E001D1022402E0702E00D1A8
:1034500001240848016821F0070121430160006848
:1034600000F00700A04201D00120F8BD0020F8BD07
:1034700000100240002002400148FEF747BD000056
:103480002803001010B5806A0021A0F84610C187FB
:10349000FEF73AFD10BD10B5806A01684A6822F057
:1034A00003024A60016E41F010010166012180F8BB
:1034B0005D10FEF729FD10BD10B5806AFEF7CAFF4A
:1034C00010BD38B50546846AFDF74AFC02462868F7
:1034D0000068800623D42068416821F02001416003
:1034E0002068416821F0020141606421204600F01B
:1034F0001AF818B1206E40F020002066A068002164
:1035000018B92068C26880680090E187012084F8BB
:103510005D00206E18B12046FEF7F6FC38BD20464F
:10352000FEF78CFF38BDF8B515460E460B460092E7
:10353000044600224FF4C05100F01AF888B933460F
:10354000002280212046009500F086F848B93346D5
:1035500000224FF4C0612046009500F009F80028D1
:1035600004D0206E40F0200020660320F8BD00004B
:103570002DE9FE4F4FF0000A984617460E460446C6
:103580000C9D8DF804A0FDF7EBFB411BA8EB01059A
:10359000FDF7E6FB814620684FF4C06B0C300290CB
:1035A0002A480068C0EBC00000EB8000000D6843B3
:1035B000009043E05E4506D12FB9029800788DF85F
:1035C00004009DF80400B8F1FF3F37D0FDF7C8FBB9
:1035D000A0EB0900A84203D215B1009858B32BE024
:1035E0002068416821F0E00141606068B0F5827FA9
:1035F0000BD1A068B0F5004F02D0B0F5806F04D1B8
:103600002068016821F040010160A06AB0F5005F08
:1036100009D12068016821F4005101602068016827
:1036200041F400510160012084F85D0084F85CA041
:10363000032000F00DB80025401E0090206880682F
:103640003040B842B6D10020F3E70000240000105B
:103650001EBCBDE8E08F00002DE9F8431E469146F0
:1036600088460446089DFDF77BFB401B351AFDF795
:1036700077FB074625480068C0F3CB30684338E045
:10368000701C37D0FDF76CFBC01BA84203D215B1EC
:10369000009860B32CE02068416821F0E0014160AF
:1036A0006068B0F5827F0BD1A068B0F5004F02D002
:1036B000B0F5806F04D12068016821F040010160FD
:1036C000A06AB0F5005F09D12068016821F40051BB
:1036D00001602068016841F400510160012084F814
:1036E0005D00002084F85C000320BDE8F88300251D
:1036F000401E00902068816838EA010004D0002153
:103700004945BDD10020F0E70121F9E72400001070
:1037100070B51E4614468A19521E93B20219521EE3
:1037200092B2049D00F0BAF87443012280210C4843
:10373000FDF711FB002007E035F810100A0A42EAF5
:10374000012125F81010401CA042F5D34FF6FF7060
:1037500000EA44022946BDE870400248FEF7E0BD99
:1037600000080048280300107FB51920FDF7EEF986
:103770003F4D4FF40044002221462846FDF7EBFA66
:103780001920FDF7E3F9012221462846FDF7E3FA67
:103790006420FDF7DBF93A2000F0E0F8552000F056
:1037A00015F9B22000F0DAF832A1D1E90001CDE933
:1037B00000010521684600F0E3F8032000F0B6F8A8
:1037C000B72000F0CBF8352000F000F9BB2000F066
:1037D000C5F8192000F0FAF8C02000F0BFF82C203E
:1037E00000F0F4F8C22000F0B9F8012000F0EEF883
:1037F000C32000F0B3F8122000F0E8F8C42000F075
:10380000ADF8202000F0E2F8C62000F0A7F80F2065
:1038100000F0DCF8D02000F0A1F8A42000F0D6F8E9
:10382000A12000F0D3F8E02000F098F813A00FC812
:103830008DE80F000E21684600F0A2F8E12000F0AC
:103840008DF812A10FC98DE80F000E21684600F017
:1038500097F8212000F082F8112000F07FF8132063
:1038600000F07CF804B02920BDE8704000F076B884
:10387000000400480C0C003333000000D0040D118C
:10388000132B3F544C180D0B1F230000D0040C11B8
:10389000132C3F44512F1F1F202300002DE9F84314
:1038A000DFF8848007461C46B8F8020015460E462D
:1038B000874203D1B8F80400854214D0380A8DF845
:1038C00000008DF80170280A8DF802008DF8035071
:1038D0002A2000F043F80421684600F051F8A8F8C7
:1038E0000270A8F80450B8F806004546864202D196
:1038F0002889844212D0300A8DF800008DF80160CA
:10390000200A8DF802008DF803402B2000F026F8E5
:103910000421684600F034F8EE802C81BDE8F843BD
:103920002C2000F01BB800000000001010B5044669
:10393000362000F013F854B1012C0AD0022C0AD022
:10394000032C0AD16020BDE8104000F03FB8C02031
:10395000F9E7A020F7E70020F5E710BD01B5002248
:1039600080210548FDF7F7F94FF0FF330122694642
:103970000248FEF70DFC08BD0008004828030010AF
:103980002DE9F0470C460646012280210D48FDF73F
:10399000E2F94FF480374FF6FF784FF0FF390DE032
:1039A000BC4201D3404600E0204685B24B462A4641
:1039B00031460548FEF7ECFB2E44641B002CEFD18A
:1039C000BDE8F087000800482803001001B5012277
:1039D00080210548FDF7BFF94FF0FF33012269460A
:1039E0000248FEF7D5FB08BD000800482803001078
:1039F0007047704710B596B044216846FCF73DFC0F
:103A0000142111A8FCF739FC4FF40070FDF772FC8B
:103A1000F8B901210804CDE90010022003240A901E
:103A2000CDE90B4114210D910721CDE90E10109025
:103A30006846FDF7B3FF60B90F20CDE911040020FF
:103A4000139014901590042111A8FDF781FE002811
:103A500001D0FCF7DFFE16B010BD0000024801687F
:103A600041F470010160704788ED00E00148FEF705
:103A7000A8BD0000D40300100148FEF7A2BD00005D
:103A8000A404001070B50268164B4FF080469842AF
:103A900001D0B04203D122F070044A682243124C94
:103AA000124D984205D0B04203D0A04201D0A842A6
:103AB00003D122F44076CA6832434E6922F0800274
:103AC000324302608A68C2620A688262984203D006
:103AD000A04201D0A84201D10969016301214161DD
:103AE00070BD0000002C0140004001400044014036
:103AF00090F82410C90706D001684A68836A22F446
:103B000000321A434A6090F82410890706D50168EC
:103B10004A68C36A22F480321A434A6090F824103B
:103B2000490706D501684A68036B22F480221A43CC
:103B30004A6090F82410090706D501684A68436B6B
:103B400022F400421A434A6090F82410C90606D5B0
:103B500001688A68836B22F480521A438A6090F865
:103B60002410890606D501688A68C36B22F40052C6
:103B70001A438A6090F82410490611D501684A68F2
:103B8000036C22F480121A434A60016CB1F5801F65
:103B900006D101684A68436C22F4C0021A434A60A5
:103BA00090F82410090606D501684A68806C22F452
:103BB000002202434A607047F8B500260446C0F868
:103BC0008060FDF7CDF80546206800686FF07E47FD
:103BD000000708D52B4600224FF40011204600971D
:103BE00000F010FA60B92068006840070AD52B463B
:103BF00000224FF480012046009700F003FA08B13C
:103C00000320F8BD2020A067E067266684F8746072
:103C10000020F8BD70B5846AA06FE56F21688968DF
:103C20004FF00006090606D5212804D1A4F85260F9
:103C3000204600F088F820688068400606D5222DCE
:103C400004D1A4F85A60204600F058F8D4F8800057
:103C500040F01000C4F880002046FEF7EDFD70BD76
:103C600010B50146806A0968096889062DD40021CB
:103C7000A0F85A10016851E8002F22F4807241E840
:103C80000023002BF6D10168083151E8002F22F003
:103C9000010241E80023002BF5D10168083151E809
:103CA000002F22F0400241E80023002BF5D1202113
:103CB000C167016E012908D1026852E8001F21F096
:103CC000100142E80013002BF6D1016E012902D049
:103CD000FEF726FE10BDB0F85810FEF787FD10BDA8
:103CE00010B5806A016E012902D0FEF71AFE10BDE0
:103CF000B0F858104908FEF779FD10BD016851E889
:103D0000002F22F4907241E80023002BF6D10168C5
:103D1000083151E8002F22F0010241E80023002B76
:103D2000F5D1016E012908D1026852E8001F21F087
:103D3000100142E80013002BF6D12021C1670021B9
:103D4000016641667047026852E8001F21F0C00119
:103D500042E80013002BF6D1202181677047000054
:103D60002DE9F0410446016880682269E369104347
:103D7000626900251A431043714F0A68714B1A405B
:103D800002430A6020684168E26821F4405111430F
:103D900041602168A069B94201D0226A10438A6853
:103DA00022F4306202438A606749236867488B4285
:103DB0000DD1D0F8880010F0030006D0012847D0BC
:103DC000022843D0032830D144E001212EE060498D
:103DD0008B420BD1D0F8880010F00C0034D00428AE
:103DE00036D0082832D00C281FD133E059498B42F5
:103DF0000BD1D0F8880010F0300025D0102827D043
:103E0000202823D0302810D124E0BB420DD1D0F897
:103E1000880010F4406017D0B0F5806F18D0B0F56E
:103E2000006F13D0B0F5406F14D010214A4A00261D
:103E30004FF40040BB422FD171B102290FD00429A9
:103E40000FD0082973D10FE00021EFE70221EDE741
:103E50000421EBE70821E9E7FDF72AFD03E010461E
:103E600002E0FDF749FDE8B3626802EB42018142DE
:103E70005DD8B0EB023F5AD8010E03025008181863
:103E800071410023FCF79EF9344AA0F5407191423C
:103E90004DD82168C8604BE0E3694FF6EF77834265
:103EA00028D1092943D2DFE801F005080B420D4271
:103EB00042421000FDF7FCFC06E0FDF70BFD03E0BD
:103EC000104602E0FDF718FD60B14100606801EBAB
:103ED0005001B1FBF0F0A0F11001B94227D84FF624
:103EE000F07100E024E00140C0F34200014320688B
:103EF000C1601DE009291AD2DFE801F005080B199D
:103F00000D1919191000FDF7D3FC06E0FDF7E2FCCE
:103F100003E0104602E0FDF7EFFC48B1616800EBFA
:103F20005100B0FBF1F0A0F11001B94205D9012513
:103F300066662846A666BDE8F08180B2A9E7000063
:103F400000800040F369FFEF00380140001002409C
:103F500000440040004800400024F400FFFC0F0033
:103F600070B54165A0F8582000250446C0F880507F
:103F70002220E067206FD8B11F49C162216F1F481E
:103F800013460863216F1E484863206F8563666D82
:103F9000216832462431206FFCF7A0FD40B110208B
:103FA000C4F8800004F8745F2020A060012070BD78
:103FB00084F87450206940B1216851E8000F40F442
:103FC000807041E80002002AF6D12068083050E8ED
:103FD000001F41F0010140E80012002AF5D12068DD
:103FE000083050E8001F41F0400140E80012002A6C
:103FF000F5D1002070BD0000613C0008E13C0008E4
:10400000153C00082DE9F0479A4617460E4604462F
:104010004FF000094FF02008089D4AE0681C48D086
:10402000FCF79EFEA0EB0A00A8422AD84DB32068F8
:10403000016849073DD5C069C043000539D42168EE
:104040004FF400600862206850E8001F21F4D0712E
:1040500040E80012002AF6D12068083050E8001F1E
:1040600021F0010140E80012002AF5D1C4F878805F
:10407000C4F87C80C4F8808084F874900320BDE884
:10408000F087216851E8000F20F4D07041E8000269
:10409000002AF6D12068083050E8001F21F0010105
:1040A00040E80012002AF5D1C4F87880C4F87C807A
:1040B000E2E72068C06936EA000004D00020B84278
:1040C000ACD00020DBE70120F9E7FEE7014A024916
:1040D00001F067BEA1FD0008580200100907090E93
:1040E000002804DB00F1E02080F80014704700F0A5
:1040F0000F0000F1E02080F8141D704702E008C8AE
:10410000121F08C1002AFAD170477047002001E051
:1041100001C1121F002AFBD1704770B5044600256B
:104120006FF02F0608E02068411C2160007805EB45
:10413000850106EB410145182068007800F004F87D
:104140000028F0D1284670BD3038092801D8012058
:10415000704700207047000010B54C21074800F060
:10416000CEFE0022212106481FF0E0F8054C6060D9
:1041700002F040F80020207010BD0000580600102A
:10418000A9620008CC00001070B5B1F90030B2F996
:104190000040A34200DC23460380B1F90250B2F98B
:1041A0000240A54200DD2C464480B1F90460B2F91A
:1041B0000450AE4200DA35468580B1F90610B2F9F6
:1041C0000620914200DB1146C1800120AB4201DC98
:1041D0008C4200DD002070BDF8B50D460446B0F9F4
:1041E0000000B1F900101646884247DBB4F902100E
:1041F000B5F90220914241DBB4F90410B5F904206D
:1042000091423BDCB4F90610B5F90620914235DC49
:1042100096B3ADF800006088ADF8020032466946FA
:10422000284600F099F8002827D0A088ADF80000B3
:104230006088ADF8020032466946284600F08CF8E6
:1042400000281AD02088ADF80000E088ADF8020000
:1042500032466946284600F07FF800280DD0A08835
:10426000ADF80000E088ADF8020032466946284605
:1042700000F072F8002800D00120F8BD0020F8BD41
:10428000B0F90020B1F904309A4213DCB0F90420EF
:10429000B1F900309A420DDBB0F90220B1F90630D5
:1042A0009A4207DCB0F90600B1F90210884201DB3E
:1042B0000120704700207047F8B50D460446B0F95C
:1042C0000400B1F900101646884243DBB4F9060039
:1042D000B5F9021088423DDBB4F90000B5F90410CD
:1042E000884237DCB4F90210B5F90620914231DC7E
:1042F00076B3ADF800006088ADF80200324669463A
:10430000284600F029F818BBA088ADF800006088A6
:10431000ADF8020032466946284600F01DF8B8B9EB
:104320002088ADF80000E088ADF80200324669460A
:10433000284600F011F858B9A088ADF80000E088D0
:10434000ADF8020032466946284600F005F808B18B
:104350000020F8BD0120F8BD2DE9FC4114460E46B1
:10436000B1F90020B0F9001005468A423ADBB5F9F0
:104370000400824236DCB6F90270B5F90220974299
:1043800030DBB5F906309F422CDC002C75DD401A7D
:104390009A1A401C521C00B212B200EBD07002EB11
:1043A000D27240105210904200DB1046844200DD71
:1043B0000446ADF80010288800222044ADF804001F
:1043C0006888ADF80200688831462044ADF80600E0
:1043D0006846FFF7C1FF40B1BDF804002044ADF8C6
:1043E00004003FE00020BDE8FC81E8880022001BBB
:1043F000ADF80200E888ADF8060031466846FFF7E0
:10440000ABFF28B1BDF804002044ADF8040011E072
:10441000A8880022001BADF80000A888ADF80400B1
:1044200031466846FFF798FF50B1BDF80000001B09
:10443000ADF80000BDF80200001BADF8020016E068
:104440006888ADF80200688800222044ADF80600B4
:1044500031466846FFF780FF70B1BDF80000001BD1
:10446000ADF80000BDF806002044ADF80600314666
:1044700068461CF06EFAB6E7FFE70120B3E710B517
:10448000B1F90040B2F900309C4200DA23460380C3
:10449000B1F90240B2F902309C4200DA234643806F
:1044A000B1F90440B2F904309C4200DD2346838018
:1044B000B1F90610B2F90620914200DC1146C18024
:1044C00010BD00002DE9F0478AB006461EF0CAFE76
:1044D000A64C05460EB1F06801E011F0DFF960600E
:1044E000D0F85C011EF0B8FE81466068C0F85C51EF
:1044F0009F4D6E69D6BB17F022FA16F03DFB0646BB
:1045000000227F211CF01EF810F054FB014600220F
:1045100030461CF006F810F003FE0146002230463B
:104520001CF07EF80022032130461CF06AF80022BD
:10453000032130461CF056F80022032130461CF0BF
:1045400056F80022032130461CF056F800220321C1
:1045500030461CF060F887A1304617F073F900234D
:104560001A460621304618F00BF96E6128681EF0D5
:1045700073FE4FF4967A002750450CD2206841F222
:104580008831884234D9696801EB09006860A868FD
:10459000401CA8602CE01EF065FE28606068406842
:1045A00028B100684FF47A71B1FBF0F000E01E20F2
:1045B000696809B901216960A968F1B14FF47A729B
:1045C00051436A68B1FBF2F86F60AF60804500D973
:1045D0008046286940442861E868401CE8601EF075
:1045E000D7FEC0F16403424663A1304617F05FF97D
:1045F0005E4E0836756815B137E08046E4E717F07F
:104600009EF916F0B9FA054600227F211BF09AFFA9
:1046100010F0D0FA0146002228461BF082FF10F06D
:104620007FFD0146002228461BF0FAFF00220321ED
:1046300028461BF0E6FF0022032128461BF0D2FF8C
:104640000022032128461BF0D2FF00220321284626
:104650001BF0D2FF47A1284617F0F4F800231A46B2
:104660000421284618F08CF8756030681EF0F4FDBF
:10467000504519D91EF0F6FD306002A817F0C0FBB6
:1046800004990298401A820A514200EB8120662167
:10469000B0FBF1F39DF821109DF82000CDE9000159
:1046A00039A1284617F003F9606800691CF04AF840
:1046B0006068406908B11CF045F86068C0691CF08A
:1046C00041F86068006A1CF03DF860680169E9B370
:1046D0000068017CC90703D0806B407B002842D171
:1046E0001CF0C6F920F05AFC6068B0F8501171B3A4
:1046F0000168097C890715D511F02EF9401E05B215
:10470000606811F0E3F8401E03B20022114601A8D0
:1047100000950EF0A5FE606801A90268926B5160D9
:1047200004F090FB60684FF48071303017F078FC33
:104730006068202100F5987017F072FC6068A0F89E
:1047400050710068036A13B1494601E009E001E0D5
:104750002268984700F056F80AB0BDE8F04700F02C
:1047600025B8A0F850710AB0BDE8F08764000010C9
:10477000100500103F0000002575204650530A2503
:10478000752525204350550025752E2575206B4233
:10479000207573656420282564202525290A256451
:1047A000252520667261672E0000000070B50A4D55
:1047B000002400BFC4EBC40655F8260008B114F06D
:1047C00037FB05EB86001C2117F02EFC641CE4B2BD
:1047D000042CEFD370BD0000B406001008494968EE
:1047E0000AE04A68824202D00A68824203D10A7E05
:1047F00042F001020A7649690029F2D170470000AF
:1048000038000010704700000421014800F077BB19
:104810004C0600102021014800F071BB6406001016
:104820002DE9FF410446DDE90A671D004FF0000055
:1048300002D1B6F5807F2BD0039001900290ADF8A5
:104840000C100090ADF80410ADF80A20ADF80E2061
:104850003B463246294668461BF0D8FF3B46324667
:10486000294601A81BF0D2FF3B463246294602A842
:104870001BF0CCFF3B463246294603A81BF0C6FF7F
:10488000BDF90000BDF90430984209DA054608E098
:104890002080491E6080A180521EE28000F075B821
:1048A0001D46BDF90820BDF90C108A4201DA1646F2
:1048B00000E00E46B54203DA984206DB184604E0F3
:1048C0008A4201DA104600E00846801E2080BDF9C9
:1048D0000030BDF90420934201DD1D4600E015467D
:1048E000BDF90800BDF90C10884201DD064600E064
:1048F0000E46B54205DD934201DD194604E011463E
:1049000002E0884200DD0146891CA180BDF9023029
:10491000BDF90620934201DA1D4600E01546BDF9B7
:104920000A00BDF90E10884201DA064600E00E4684
:10493000B54205DA934201DA194604E0114602E075
:10494000884200DA0146891E6180BDF90230BDF956
:104950000620934201DD1D4600E01546BDF90A0020
:10496000BDF90E10884201DD064600E00E46B54254
:1049700005DD934201DD194604E0114602E088425C
:1049800000DD0146891CE18088E703BCBDE8FC81AD
:104990002DE9F04115460E460746124C1EF062FC0A
:1049A00080462B4632463946204615F023FA20B180
:1049B0000020A062E06958B111E020462C220021BD
:1049C00017F000FB4FF00040A0620020BDE8F0812E
:1049D00040461EF041FCE06108B90120E06120463C
:1049E000F4E700008806001010B51421074800F015
:1049F00086FA15F0C5F940B10549016005494160E5
:104A0000054981600549C16010BDFEE770060010D0
:104A100099970108219B01089B9C01086597010853
:104A200070B505460C4608461022002117F0CAFA58
:104A300028680078012804D0022807D0042807D06D
:104A400008E0288A2080688A608003E0E86800E047
:104A50000A20606028684268002A03D02146BDE829
:104A60007040104770BDFEB5866A0446BEB9A08A84
:104A7000218A0844A082E08A618A0844E0822046B4
:104A80000AF067FC06007BD020460DF011F80022EA
:104A90000921304614F0B8F86078800770D4208A75
:104AA00010B9608A00286BD00025ADF80450ADF82D
:104AB000085094F83C0000F00F000328304616D050
:104AC00018F0DEFF0746304618F0AEFE03460C2015
:104AD0000090B4F912103A46304609F08EFFADF856
:104AE0000800304618F0E8FEC10712D017E018F0B1
:104AF00065FF0746304618F007FF02460320009086
:104B0000B4F910103B46304609F077FFADF80400C9
:104B1000E7E7BDF90410002901DDADF80450810775
:104B200005D4BDF90410002901DAADF8045041079D
:104B300005D4BDF90810002901DDADF808500007C3
:104B400005D4BDF90800002801DAADF8085002AA22
:104B500001A9204620F0F6FFBDF90820BDF9041098
:104B6000304600F067FA6078800709D4A08ABDF863
:104B700004100844A082E08ABDF808100844E082CE
:104B8000FEBD2DE9FC5F0446806A5FEA000B71D030
:104B900094F83C0000076DD015F0BAFC0190006855
:104BA0004021457E584619F0FAFF4FF0000818B929
:104BB000A4F81A80A4F81880584618F053FF8246CB
:104BC000584618F056FF064694F83C004FF064092A
:104BD00000F00F000C2802D003284CD0A0E0A4F86D
:104BE000188056B1B4F91A50002715F091FC0068EE
:104BF0004946407EC0F1640022E0608BC5F164014B
:104C000010FB01F191FBF9F06083584618F00CFE9F
:104C10000546584618F034FF02460C200090B4F9BF
:104C20001A102B46584609F0E8FE60830246002120
:104C30004CE07A1917B210FB05F292FBF1F215B2B3
:104C4000002DF6D1ADF80070A4F81A806A46002154
:104C5000204620F077FF41F6FF72BDF90030514247
:104C600058460AF0E1FCBDF800100123084402B2E6
:104C700000214FE0A6E0A4F81A80BAF1000F0AD094
:104C8000B4F91850002715F043FC0068417E4846EF
:104C9000C1F1640125E0208BC5F1640110FB01F135
:104CA00091FBF9F02083584618F02EFE0546584631
:104CB00018F084FE034603200090B4F918102A4629
:104CC000584609F09AFE208301460022584600F01B
:104CD000B1F922E07A1917B211FB05F292FBF0F25A
:104CE00015B2002DF6D1ADF80070A4F8188000229E
:104CF0006946204620F026FF41F6FF72BDF90030DC
:104D0000514258460AF004FCBDF800100123084443
:104D100001B2002258461BF063F86078800751D436
:104D2000208B00284ED1608B00284BD1DEB958462D
:104D300018F0A6FE0546584618F076FD002D06DC54
:104D4000002810DD002D02DA01232A4604E00028A5
:104D500009DA0123404202B2002158461BF040F814
:104D6000607880072ED4BAF1000F1CD1584618F095
:104D7000CBFD0546584618F021FE002D07DC002823
:104D800011DD002D03DA01230022294605E0002869
:104D900009DA01230022404201B258461BF020F8F4
:104DA000607880070ED40B215846019A13F02CFF2F
:104DB0006078800706D414F83C0F20F00F002070B4
:104DC00044F8148C00F000B83CBCBDE8C09F7FB52F
:104DD0000E46040003D110F061FD04002CD010F049
:104DE000F9FD002828D094F82800400724D4002595
:104DF00006B3ADF80050ADF80250204610F066FD45
:104E0000401EADF80400204610F0A6FD401EADF88F
:104E100006006A46314602A8FFF7B6F900280BD013
:104E20002068017C890708D5DDE90001C4E90C018F
:104E3000012029E0A4F850517FBD82690AB102A97E
:104E4000904700260AE004EBC601002202A8303198
:104E5000FFF7C2F90028EFD1761CB6B2B4F85001C2
:104E6000B042F0D880B2202804D204EBC00002A9DE
:104E7000303004E0A4F8505104F1300069460EF0DF
:104E80003DFAB4F85001401CA4F8500160680028B5
:104E9000D2D01EF02BFB7FBD70B5054600F012F896
:104EA00004460CE02146284600F01EF8064621463E
:104EB000284600F071F8204613F0BAFF3446002C63
:104EC000F0D170BD002800D04068704700B503469F
:104ED0000022FFF7F7FF03E01846521C00F004F829
:104EE0000100F9D1104600BD0068091D4058704707
:104EF000006840587047002800D080687047002242
:104F00004260C91C21F0030182600160704770B5E6
:104F100004460068083016F02FFF050013D0014644
:104F2000002220461FF0F0FB2946204662681FF051
:104F3000E5FB616819B12A4620461FF0E5FB656074
:104F4000A06800B9A560284670BD70B50446006829
:104F5000083016F011FF050013D00146002220464C
:104F60001FF0CCFB29462046A2681FF0CDFBA168AC
:104F700019B12A4620461FF0C1FBA560606800B940
:104F80006560284670BD28B1416809B9806808B1DC
:104F9000002070470120704770B504000DD0FFF766
:104FA00091FF00228842204608D1FFF79DFF6060F4
:104FB000011E01D000221EE0A26070BDFFF79BFF22
:104FC0008842206808440AD10168A16029B12046BE
:104FD000BDE8704000221FF091BB626070BD0568A3
:104FE0002046FFF781FF06460246294620461FF06D
:104FF00085FB2A4631462046BDE870401FF084BB41
:1050000010B50446006882680AB1214690472068BE
:105010000068002801D02060F5E710BD80680028F6
:1050200001D0B0F9160070478068002801D0807E5A
:105030008009704770B5164605460C4651EA0600D1
:105040001AD0284617F00CFDA86801233246018AC1
:1050500021440182A868418A314441822146284680
:105060001AF016F900220C21284613F0CDFD012874
:1050700003D128461AF066F8012070BD77B581B0DB
:105080000E46050017D0612219F0CEFA040012D0A6
:10509000206880B128463146622219F0C5FA10F026
:1050A000FF0208D023682046039998470090BDF876
:1050B0000000ADF80C00039804B070BD2DE9F04776
:1050C000074694B0408C1C9E40F0040078849046C3
:1050D0003A8499468A463289384619F0A5FA054637
:1050E000A7F8209032895146384619F09DFA0446B7
:1050F000788CA54220F00400788403D12904B1EB18
:10510000044F64D0A7F8208032895146384619F000
:105110008BFA05468046A7F82090514638460BF09A
:105120003DFD318900682A461CF0C2FF30890B28FA
:1051300023D147F6FF794D4501D04C451DD1384666
:1051400019F0EEFC00EBD0704510384618F01FFB4C
:1051500000EBD0704010C84506D1691C431C994231
:1051600000DA00E0194688464C4506D1691C421C0D
:10517000914201DA6C1C00E014461748FFF7C7FEA5
:10518000050027D02F60C5E903843089A8806846D0
:10519000C5F808A00DF0CAFB1048FF21CDE900506A
:1051A0000F4802900F48039000200890CDE90901B4
:1051B00030880B90708840420C90F0680790002077
:1051C0008DF842003069069068460DF021FC14B05D
:1051D000BDE8F087FEE700007C0600104D8E020857
:1051E00039900208958F020814210148FFF787BE05
:1051F0007C0600102DE9F84F0025904689460646AA
:105200002C460427E5E000BFF16807EBC40008580E
:1052100082017AD480B230EA090211D05FF0000234
:1052200030EA08000ED0002082426ED051F834A03F
:105230006A46102150461CF09FFC002871D103E003
:105240000122EDE70120EFE76A46112150461CF0EC
:1052500093FC002865D16A46122150461CF08CFC54
:1052600000285ED16A46132150461CF085FC0028B8
:1052700057D16A46152150461CF07EFC002850D1BB
:105280006A46142150461CF077FCE8BB6A460A21A6
:1052900050461CF071FCB8BB6A466A2150461CF0AF
:1052A0006BFC88BB6A466B2150461CF065FC58BB02
:1052B0006A46012150461CF05FFC28BB6A46042167
:1052C00050461CF059FCF8B96A46022150461CF0C1
:1052D00053FCC8B96A46032150461CF04DFC98B9EE
:1052E0006A46052150461CF047FC68B96A4606210B
:1052F00050461CF041FC38B96A46322150461CF039
:105300003BFC08B96A4601E00BE061E06D215046C4
:105310001CF032FC28B96A466C2150461CF02CFC6B
:1053200010B1032000F05DB86A46682150461CF0B9
:1053300023FCE8BB6A46692150461CF01DFCB8BB43
:105340006A466D2150461CF017FC88BB6A466C21EA
:1053500050461CF011FC58BB6A46372150461CF0E1
:105360000BFC28BB6A46382150461CF005FCF8B9F6
:105370006A46352150461CF0FFFBC8B96A464021F9
:1053800050461CF0F9FB98B96A46452150461CF07E
:10539000F3FB68B96A46412150461CF0EDFB38B971
:1053A0006A46422150461CF0E7FB08B96A4600E015
:1053B0000AE0432150461CF0DFFB28B96A46492128
:1053C00050461CF0D9FB08B1022501E005B90125C2
:1053D000641C708CC0F3C500A0423FF615AF284690
:1053E000A0E718BCBDE8E08F0148406870470000A6
:1053F000640000100549002048600861C8608860AA
:105400000860486102490860486070471005001054
:105410006C000010C0F30410072800D90720704763
:10542000A0F57F41FF3905D0002804D0702803D2B1
:1054300008490AE01F2070470749703880B20968A0
:1054400029B1064A5268904201D2085C7047002098
:105450007047000018990208F400001008010010BD
:1054600010B518210348FFF74AFD034901200870D1
:1054700010BD000028060010100100102DE9F041B9
:1054800090460C46050015D0FAF702FF0A4F064673
:105490002146BA68284690470446BA68281941460A
:1054A00090470146701A03E06218AA5C2A55641CF2
:1054B000A042F9D2BDE8F081240100102DE9F041AD
:1054C000094D90460E466A681C46074619469047A5
:1054D000306020B120686A68384400219047C8F8DD
:1054E0000000BDE8F0810000240100102DE9F04F1C
:1054F00087B08A46DDE910581F46934604460021CE
:1055000005B129805CB12078002809D0BAF1000FDC
:1055100005D0002618F0060F15D0002004E000206A
:1055200007B000F063B8401C215C0A2904D00D29A3
:1055300002D00029F7D100E0401C002DF0D04FF040
:10554000FF312980ECE75FEA887001D541F6FF77EB
:10555000894608468DF81410049127E00498CDF888
:10556000189068B34FF0000C05AA06ABCDF80CC03C
:10557000CDF80080CDE9013220443B465A465146E1
:105580001EF01CF906997A1A314417B20EB288B18E
:1055900004990144049120780A280BD00D2809D0E1
:1055A000605C0A280FD00D280DD00846205C08B199
:1055B000002FD3DC049848B105B12E800498AFE7E2
:1055C0004FF0010CD0E7481C0490F3E7064A04A909
:1055D000204652689047002DF0D0014600225046E8
:1055E00013F019FC06B2E8E72401001030BCBDE856
:1055F000C08F00002DE9F0411746884606001ED0F6
:10560000002F1CD0FAF744FE04463846FAF740FE55
:10561000050014D00B4A2C4441469268304690470E
:10562000411903E0621BB25C3255641EA142F9D9F4
:1056300030442A463946BDE8F04116F027BCBDE8A3
:10564000F08100002401001000230278232902D0F9
:10565000012A0DD00FE02AB10021012A04D0022A2C
:1056600004D008E0012101E0017004E0017001E0D4
:10567000202902D00123184670470221F6E72DE9C0
:10568000F0410E46804602460021334608461EF091
:10569000DBFA04460027401C16F06EFB050008D01C
:1056A0002F5533464246611C1EF0CEFA2846BDE80F
:1056B000F081FEE72DE9F0471E4614460D4682466E
:1056C000DDF8209015E000BF4FEA540808FB0657AC
:1056D000394650464A469047002808DD44F300000A
:1056E000C0EB540407EB0605A4F1010401E005DA60
:1056F0004446002CE8D12046BDE8F0873846FBE759
:105700002DE9FF4F89B005460A98002492460028EB
:1057100000D1FE4D8FE1252804D02246641C53465B
:105720000A990BE2491C4FF0000808460C910178D9
:105730002B2919D004DC202919D0232904D119E000
:105740002D290ED0302909D00026C8B2FEF7FCFC66
:10575000B0B10CA8FEF7E1FC06461FE048F00101DD
:105760000AE048F0020107E048F0040104E048F0D4
:10577000080101E048F01001401C88460C90D6E773
:105780000C9908782A2809D1169840C81690002E3E
:1057900002DA48F002087642491C0C910C984FF04E
:1057A000000B01782E2919D1401C0C9048F4806818
:1057B0000078FEF7C9FC20B10CA8FEF7AEFC8346CA
:1057C0000CE00C9A10782A2808D1169802C8169076
:1057D000002900DC0021521C8B460C920C980178A9
:1057E0006C290AD004DC68290FD06A2919D128E075
:1057F000742929D07A2914D126E0401C0C90017814
:1058000048F480786C291CD00BE0401C0C90017887
:1058100048F08008682904D148F04001401C8846BF
:105820000C9002460078692822D015DC62281FD02F
:105830000DDC252871D050281AD058287FF46DAF80
:1058400016E048F40071E9E748F48071E6E7632860
:1058500078D06428F2D10BE0732874D004DC6F2870
:1058600006D07028EAD103E0752801D07828E5D168
:1058700078280DD058280BD070280BD0502809D08C
:105880006F2816D0622816D00A2128F0100016E0E2
:10589000102107E05078102148F48878562804D168
:1058A000521C0C921078582807D01078502804D039
:1058B00006E0082109E0022107E048F020008046C8
:1058C0001078692803D0642801D028F00C085FEA1A
:1058D000485001D528F00108107869281ED06428A6
:1058E0001CD0562864D05FEA885072D5169804AB55
:1058F000C01D002283E806080292CDE9076820F067
:1059000007005346F0E80212CDE900121690224635
:1059100028460A9900F0FDF989E00AE15FEA88501B
:1059200024D5169804AFC01D20F00703F3E8020247
:105930001693002387E80A08CDE90768002A03DAEE
:10594000012102E080E0A6E0002100230291194637
:105950001B1A914101DA114603E00021404261EB3C
:10596000020153462246CDE90001D1E75FEAC85063
:1059700004D5169804C80FE0524215E05FEA48606B
:1059800003D5169810F8042B06E05FEA0860F0D5FE
:10599000169830F8042B12B21690CDE9021BCDE90F
:1059A0000468D00F002AE7DDCDE9002053461EE051
:1059B0001698AAEB040202C8169048680068009086
:1059C0000A980B6801192846FFF79AFE04442FE055
:1059D000FFE75FEAC8500CD5CDE9021BCDE90468AA
:1059E00016980021534604C8CDE90021169022469E
:1059F00019E05FEA486003D5169810F8042B08E018
:105A00005FEA0860169803D530F8042B92B200E0E4
:105A100004C816900020CDE90020CDE9021BCDE995
:105A200004685346224628460A9900F02FF9044696
:105A30000C98401C0C900C99087800287FF46BAEF1
:105A400054457DD222467DE001275FEA887006D565
:105A500009E02246641C534620200A99A84738468C
:105A60007F1CB042F5D316992246641C11F8040B32
:105A7000169153460A99A8475FEA887006D4D7E77B
:105A80002246641C534620200A99A84738467F1CAA
:105A9000B042F5D3CCE7169850F8049B16904B46CD
:105AA000BBF1000001D0014601E04FF0FF31484654
:105AB00000E0401C02780AB1491EFAD2C71A5FEA18
:105AC000485003D558465F4500D307465FEA8870C3
:105AD00006D512E02246641C534620200A99A847A6
