:020000040800F2
:10000000600A0020790200089B1F00089D1B000861
:10001000991F00086F040008F9290008000000007B
:10002000000000000000000000000000E3220008C3
:10003000E104000800000000132200083D2300082E
:10004000930200089302000893020008930200083C
:10005000930200089302000893020008930200082C
:10006000930200089302000893020008710400083C
:10007000930200089302000893020008930200080C
:100080009302000800000000930200089302000899
:1000900093020008930200089302000893020008EC
:1000A00093020008930200089302000893020008DC
:1000B00093020008930200089302000893020008CC
:1000C000930200089302000893020008C52200086A
:1000D00093020008930200089302000893020008AC
:1000E000930200089302000893020008930200089C
:1000F0009302000893020008930200080000000029
:1001000000000000930200080000000093020008B5
:100110009302000800000000930200089302000808
:10012000930200089302000893020008930200085B
:100130009302000800000000000000009302000885
:100140009302000893020008000000000000000075
:10015000000000000000000000000000000000009F
:1001600000000000000000000000000093020008F2
:1001700093020008000000000000000000000000E2
:1001800000000000930200080000000000000000D2
:10019000000000000000000000000000000000005F
:1001A0000000000000000000930200089302000815
:1001B0009302000893020008930200080000000068
:1001C0000000000093020008000000000000000092
:1001D000930200089302000800F002F800F03CF8D7
:1001E0000AA090E8000C82448344AAF10107DA4592
:1001F00001D100F031F8AFF2090EBAE80F0013F0A8
:10020000010F18BFFB1A43F001031847AC3400007C
:10021000CC340000103A24BF78C878C1FAD852070D
:1002200024BF30C830C144BF04680C607047000070
:100230000023002400250026103A28BF78C1FBD8EF
:10024000520728BF30C148BF0B6070471FB503F08D
:100250000EFA1FBD10B510BD00F0CFF81146FFF724
:10026000F5FF02F08DFC00F0EDF803B4FFF7F2FFAC
:1002700003BC00F0F5F80000094880470948004732
:10028000FEE7FEE7FEE7FEE7FEE7FEE7FEE7FEE746
:10029000FEE7FEE704480549054A064B70470000A3
:1002A000A9230008D901000860020020600A00208C
:1002B000600400206004002053EA020C00F0698012
:1002C0002DE9F04B4FF00006002B1FBFB3FA83F56A
:1002D00003FA05F424FA05F65E4012BF1643B2FA9B
:1002E00082F502FA05F4C5F120051EBF22FA05FCCD
:1002F00044EA0C04203556EA044C4FEA144418BF73
:10030000641C4FF000084FF00009904271EB030CA1
:1003100039D3002919BFB1FA81F701FA07F6B0FA0B
:1003200080F700FA07F6C7F120071EBF20FA07FC86
:1003300046EA0C062037B6FBF4FCA7EB0507103F96
:1003400007F01F0BCBF120060CFA0BFB2CFA06F67C
:1003500044BFB3460026202FA4BF5E464FF0000BDB
:100360005BEA060C08BF4FF0010B19EB0B09ABFB66
:10037000027C48EB0608C01B06FB02CC0BFB03CC3F
:1003800071EB0C01C1E70B46024641464846BDE809
:10039000F08B13B54FF000004FF00001AFF3008079
:1003A000BDE81C4070474FF0000200B5134694466C
:1003B0009646203922BFA0E80C50A0E80C50B1F1BD
:1003C0002001BFF4F7AF090728BFA0E80C5048BFD1
:1003D0000CC05DF804EB890028BF40F8042B08BF6F
:1003E000704748BF20F8022B11F0804F18BF00F86B
:1003F000012B7047704770477047754600F02CF826
:10040000AE4605006946534620F00700854618B001
:1004100020B5FFF73FFFBDE820404FF000064FF04A
:1004200000074FF000084FF0000B21F00701AC4629
:10043000ACE8C009ACE8C009ACE8C009ACE8C00948
:100440008D46704710B50446AFF300802046BDE8E6
:100450001040FFF70ABF000000487047000200206C
:1004600001491820ABBEFEE7260002007047FEE7F8
:10047000014800F074B80000740000200D490268C3
:100480008A4201D20C4901E00B492031D2B2142337
:10049000083AB2FBF3F2436C02F01F0223F00303AD
:1004A0001944816404498031C1640121914001658E
:1004B0007047000008040240000802400179074A22
:1004C00002EB81024265054A4432491E826501F011
:1004D0001F0201219140C16570470000FC080240E5
:1004E000704772B6FEE770B590F825200024012110
:1004F0002346022A07D00422C26380F8251080F820
:100500002430012429E00268156825F00E051560E5
:100510000268156825F001051560826C156825F4E0
:100520008075156090F84420056C02F01F0201FAF6
:1005300002F26A60D0E913255560426D32B1156848
:1005400025F480751560D0E91625556080F82510D2
:1005500080F82430816B01B18847204670BDF0B42B
:10056000016C0C6801680D6890F8442002F01F06C9
:10057000042202FA06F3234211D06B070FD50B6851
:100580009B0603D40B6823F004030B6090F844101F
:1005900001F01F018A40016C4A60016B1DE00223DB
:1005A00003FA06F727424FF0000C4FF0010218D073
:1005B000AF0716D50C68A40605D40C6824F00A040D
:1005C0000C6080F8252090F8441001F01F018B404A
:1005D000016C4B6080F824C0C16A00291AD0F0BCBD
:1005E00008470823B340234214D02B0712D50B68C9
:1005F00023F00E030B6090F84410036C01F01F0110
:1006000002FA01F15960C26380F8252080F824C005
:10061000416BE2E7F0BC704770B504000CD02B4A88
:1006200021681420914209D2294A0A44B2FBF0F011
:100630008000606427480AE0012070BD234A5242CE
:100640000A44B2FBF0F0800060642048083820645F
:10065000022084F825000A6847F6F0708243D4E946
:1006600002031843D4E904352B431843A369184304
:10067000E3691843236A1843104308602046FFF7D4
:10068000FDFEA0680025B0F5804F00D16560A16C2B
:1006900020790860D4E9130141606068401E032896
:1006A00008D82046FFF70AFF606D0560D4E91601FF
:1006B000416002E06565A565E565E563012084F8B4
:1006C000250084F82450002070BD0000080402407A
:1006D000F8FFFDBF0000024070B5044600F03CF991
:1006E0000546601C02D004484068044400F034F918
:1006F000401BA042FAD370BD000000202DE9F04F4E
:10070000DFF82092002301260324A9F1040B85B011
:100710000F2709F1040AABF1040EFAE006FA03F51B
:100720002A407CD091F804C00CF0030CBCF1010FFE
:1007300002D0BCF1020F26D1D0F808C0CDF800C01D
:100740004FEA430C04FA0CF8CDF810C0DDF800C0F5
:100750002CEA080CCDF800C0D1F80C80DDF810C0F0
:1007600008FA0CF8DDF800C048EA0C08C0F8088068
:10077000D0F804C02CEA050C0D79C5F300159D4096
:1007800045EA0C0545600D79ED43AD070ED0C5680F
:100790004FEA430804FA08FC25EA0C05D1F808C022
:1007A0000CFA08FC4CEA050CC0F80CC00D7905F0F9
:1007B0000305022D16D1DD0800EB850CCDF808C02D
:1007C000DCF820805D074FEAD56C07FA0CF528EAC3
:1007D00005080D6905FA0CF5DDF808C045EA0805BD
:1007E000CCF8205005684FEA430CCDF808C004FA55
:1007F0000CFC25EA0C0591F804C00CF00308DDF8A8
:1008000008C008FA0CF848EA0508C0F800804D68EE
:1008100015F4403F7CD0444DD5F860C000E077E04F
:100820004CF0010CC5F860C02D6E23F0030C05F0F0
:10083000010500953D4D65440295AD684FEA837C06
:100840004FEA1C7807FA08FC25EA0C05B0F1904F36
:1008500006D0DFF8DCC0604505D14FF0010C20E088
:100860004FF0000C1DE0DFF8CCC0604502D14FF026
:10087000020C16E0DFF8C0C0604502D14FF0030C57
:100880000FE0DFF8B8C0604502D14FF0040C08E07B
:10089000DFF8ACC0604502D14FF0050C01E04FF02D
:1008A000060C0CFA08FC4CEA050C029DC5F808C0C1
:1008B000D9F80050CC46D1F8048095435FEAC828A7
:1008C00000D51543CCF80050DAF80050D446D1F8E2
:1008D000048095435FEA882800D51543CCF8005082
:1008E000DBF80050DC46D1F8048095435FEA883895
:1008F00000D51543CCF80050DEF80050F446D1F88E
:10090000048095435FEAC83800D51543CCF8005001
:100910005B1C0A6832FA03F57FF400AF05B0BDE84E
:10092000F08F000008040140001002400000014068
:100930000004004800080048000C0048001000486F
:10094000001400480069084000D0012070470AB137
:10095000816170478162704701488068704700007C
:10096000000000200248816842681144816070479D
:100970000000002010B50024032000F073F80F20C1
:1009800000F008F808B1012401E000F025F8204645
:1009900010BD000070B50E4E05460024706898B179
:1009A0004FF47A71B1FBF0F00A490968B1FBF0F03D
:1009B00000F0A6FE40B9102D06D200222946501E96
:1009C00000F030F8356000E00124204670BD0000E2
:1009D000000000200C0000200A4882B0016E41F0A7
:1009E00001010166016E01F001010091816D41F08C
:1009F00080518165806D00F08050009002B000F061
:100A0000A1B8000000100240002809DB00F01F021E
:100A1000012191404009800000F1E020C0F8001160
:100A200070470000F0B40E4B1B680C46C3F3022362
:100A3000C3F10705042D00D90425191D072901D28A
:100A4000002300E0DB1E012606FA05F1491E2140C5
:100A500099409E40761E16403143F0BC01F0CDBF58
:100A60000CED00E0064900F0070208684FF6FF03AE
:100A7000184040EA0220034A104308607047000013
:100A80000CED00E00000FA052B492C4B0A683221DE
:100A90004A432B4940B1B0F5007F086829D020F4C3
:100AA000C06040F480602CE00868C0F34120022858
:100AB00004D051F8800F20F4807022E0D1F880003B
:100AC00020F48070C1F88000086820F4C06040F411
:100AD00000700860B2FBF3F0401C00E0401E4A6961
:100AE000520501D50028F9D1486940050AD50320EF
:100AF0007047C0F34120022806D051F8800F40F41F
:100B00008070086000207047D1F8800040F4807049
:100B1000C1F88000086820F4C06040F400700860EC
:100B2000B2FBF3F0401C00E0401E4A695205DBD5E1
:100B30000028F9D1D8E700000C00002040420F0047
:100B4000007000400248816841F480418160704734
:100B5000007000402DE9F8430446006800269D4DD2
:100B600000035ED5A86D0027C00008D4A86D40F032
:100B70008050A865A86D012700F080500090DFF834
:100B80005892D9F8001041F48071C9F80010FFF7AD
:100B9000E3FE804606E000BFFFF7DEFEA0EB0800A4
:100BA00002282BD8D9F80000C005F5D5D5F890005B
:100BB00010F4407014D0216C814211D0D5F890000F
:100BC000D5F8901020F4407041F48031C5F89010B1
:100BD000D5F8901021F48031C5F89010C5F8900038
:100BE000C00711D0FFF7B8FE804641F2883907E010
:100BF000FFF7B2FEA0EB0801494501D903260BE03F
:100C0000D5F890008007F3D5D5F89000216C20F43A
:100C100040700843C5F890001FB1A86D20F08050C7
:100C2000A8652078C00707D0D5F88800616820F053
:100C300003000843C5F888002078800707D5D5F859
:100C40008800A16820F00C000843C5F888002078CF
:100C5000400707D5D5F88800E16820F03000084348
:100C6000C5F888002078000707D5D5F888002169E5
:100C700020F0C0000843C5F888002078800607D51A
:100C8000D5F88800616920F440600843C5F8880001
:100C90002078400607D5D5F88800A16920F4405097
:100CA0000843C5F888002078000607D5D5F88800E5
:100CB000E16920F440400843C5F888002088C00559
:100CC00007D5D5F88800216A20F440300843C5F8DC
:100CD00088002088800507D5D5F88800616A20F44F
:100CE00040200843C5F88800208840050FD5D5F876
:100CF0008800A16A20F440100843C5F88800A06A63
:100D0000B0F5801F03D1E86840F48010E8602088C7
:100D100000050FD5D5F88800E16A20F440000843AB
:100D2000C5F88800E06AB0F5800F03D1E86840F4A8
:100D30008010E8602088C0040FD5D5F88800216BAA
:100D400020F040700843C5F88800206BB0F1807F28
:100D500003D1E86840F48010E86020884FF000611B
:100D600080040ED5D5F88800626B20F040601043F7
:100D7000C5F88800606B884203D1E86840F48010B1
:100D8000E860208840040ED5D5F88800A26B20F0DA
:100D900040601043C5F88800A06B884203D1E86822
:100DA00040F48010E860208800040FD5D5F8880052
:100DB000E16B20F040500843C5F88800E06BB0F1CB
:100DC000805F03D1E86840F48030E8603046BDE8D9
:100DD000F883000000100240007000402DE9F04749
:100DE0000E4605004FF0000725D0DFF8AC81D8F89B
:100DF000000000F00F00B0420CD2D8F8001021F033
:100E00000F013143C8F80010D8F8000000F00F00BF
:100E1000B04210D12968614CC80741F2883A5AD0D3
:100E20006868DFF87C91032808D0022820682DD05C
:100E3000400500282CDB0120BDE8F08720688001F8
:100E4000F9D5E06800F00302E068C0F30310401C2D
:100E5000032A19D0534A00BFB2FBF0F0E268C2F394
:100E600006225043E268C2F34162521C5200B0FBBA
:100E7000F2F0484517D9A06810F0F00F0CD08807A1
:100E800011D5A86840B10EE0474AE5E78003D0E7F6
:100E900000F0B6F8484506D9A06820F0F00040F010
:100EA0008000A0608027A068696820F003000843E4
:100EB000A060FFF751FD814606E000BFFFF74CFD43
:100EC000A0EB090151453AD8A068696800F00C0010
:100ED000B0EB810FF2D12868810714D5400703D504
:100EE000A06840F4E060A0602878000705D5A068FD
:100EF00020F4605040F4E060A060A068A96820F091
:100F0000F000084304E0802F03D1A06820F0F00037
:100F1000A060D8F80010404601F00F01B14216D988
:100F2000016821F00F0131430160FFF715FD07460D
:100F300007E000BFFFF710FDC11B514501D9032099
:100F40007AE7D8F8000000F00F00B042F2D128781C
:100F5000400705D5A068E96820F4E0600843A06078
:100F60002878000706D5A068296920F4605040EA77
:100F7000C100A06000F044F8A1680C4AC1F303115D
:100F8000515C01F01F01C840094908600948006828
:100F9000BDE8F047FFF7FEBC002002400010024011
:100FA00000B4C4040024F40000127A00A036000843
:100FB0000C000020000000200548064900688968F0
:100FC000054AC1F30221515C01F01F01C84070477E
:100FD0000C00002000100240B03600080548064909
:100FE00000688968054AC1F3C221515C01F01F0104
:100FF000C84070470C00002000100240B0360008C6
:10100000184910B58868C0F381021748012A0BD02F
:101010008A684310C2F38102022A06D08A68C2F3AA
:101020008102032A03D0002010BD184610BDCA68F3
:1010300002F00304CA68C2F30312521C032C02D04C
:10104000B0FBF2F001E0B3FBF2F0CA68C968C2F38A
:1010500006225043C1F34161491C4900B0FBF1F045
:1010600010BD0000001002400024F4002DE9F843F8
:1010700004007AD02078F84DC00747D0A868E96806
:1010800000F00C0001F003010C2802D0082817D052
:1010900001E0032914D06068B0F5803F17D0B0F5A7
:1010A000A02F286817D020F480302860286820F40A
:1010B000802028606068E0B1FFF74EFC064614E02F
:1010C0002868800322D560680028D2D01EE02868F6
:1010D00040F48030EDE740F480202860F7E700BF5F
:1010E000FFF73AFC801B642870D828688003F7D586
:1010F0000CE0FFF731FC064605E000BFFFF72CFCD3
:10110000801B6428F0D828688003F7D420788007F3
:101110004CD5A868E96800F00C0001F003010C2828
:1011200002D004280DD001E002290AD0E06800288E
:1011300028682BD040F480702860FFF70DFC06462D
:1011400019E02868400502D5E068002891D0686859
:10115000217C20F0FE4040EA01606860BF480068E2
:10116000FFF718FC002800D120E072E1FFF7F4FB44
:10117000801B0228B8D828684005F7D56868217C0C
:1011800020F0FE4040EA016068600FE020F48070CB
:101190002860FFF7E1FB064605E000BFFFF7DCFB38
:1011A000801B0228A0D828684005F7D420780007C3
:1011B00029D560690028D5F8940013D040F00100CB
:1011C000C5F89400FFF7C8FB064606E090E000BFB4
:1011D000FFF7C2FB801B022886D8D5F89400800751
:1011E000F6D510E020F00100C5F89400FFF7B4FB3D
:1011F000064604E0FFF7B0FB801B022878D8D5F83C
:1012000094008007F6D42078400761D5A86D0026A9
:10121000C00008D4A86D40F08050A865A86D0126D4
:1012200000F0805000908E480168C90511D4016813
:10123000804641F480710160FFF78EFB074604E0B1
:10124000FFF78AFBC01B022852D8D8F80000C0055F
:10125000F6D5A068012815D00528D5F8900016D03D
:1012600020F00100C5F89000D5F8900020F00400AF
:10127000C5F89000A06841F28838B8B1FFF76CFB60
:1012800007460EE0D5F8900040F00100F0E740F08E
:101290000400C5F89000F5E7FFF75EFBC11B414570
:1012A00026D8D5F890008007F6D50CE0FFF754FB60
:1012B000074604E0FFF750FBC11B414518D8D5F89D
:1012C00090008007F6D41EB1A86D20F08050A8656C
:1012D0002078800629D5A0690028D5F8980013D079
:1012E00040F00100C5F89800FFF736FB064606E01F
:1012F00075E000BFFFF730FB801B02286FD8D5F8E0
:1013000098008007F6D510E020F00100C5F898009D
:10131000FFF722FB064604E0FFF71EFB801B0228B6
:101320005DD8D5F898008007F6D4E069F0B3A968D5
:10133000C1F3810103295DD00228286820F0807064
:10134000286003D0FFF708FB04464BE0FFF704FBDF
:10135000064604E0FFF700FB801B02283FD8286800
:101360008001F7D4F4E908016FF00F0202EB0111DC
:101370000843218A5204490802EB4151A26841EA1C
:1013800002210843217D4FF07E42490802EB416172
:101390000843217B40EAC160E968324A11400843B2
:1013A000E860286840F08070286000E05EE0E8684F
:1013B00040F08070E860FFF7CFFA044605E000BF18
:1013C000FFF7CAFA001B022809D828688001F7D560
:1013D0004CE000BFFFF7C0FA001B022802D903202F
:1013E000BDE8F88328688001F4D4E8681E49084005
:1013F000E8603BE00128F3D0E868226A00F00301CE
:10140000914226D1616A00F0F0020901103991423F
:101410001FD1A26A00F4FE41B1EB022F19D194F85A
:101420002C2000F07841B1EBC26F12D1218E00F474
:10143000C00249084905A1F50011914209D194F86B
:10144000341000F0C06049084906A1F100718142E2
:101450000CD00120C4E70000001002400000002072
:10146000007000400C809F01FCFFEEFE0020B7E7FB
:101470007047000038B5016804464A688868C04370
:10148000430606D5C30704D1D3435B0601D4E16C00
:1014900005E0830708D4D3431B0605D4216D01B0B2
:1014A0002046BDE830400847830603D5430601D5F2
:1014B000C30551D4D3439B064ED443060AD494F8B3
:1014C0005D30032B49D0236E43F004032366CB68C1
:1014D0008B680093830609D4236E43F001032366CF
:1014E0008B6800930B6823F040030B60C00506D4A3
:1014F000206E40F008002066206880680090206E12
:10150000002829D02068416821F0E00141600120D5
:1015100084F85D00900701D4D00722D0206841688C
:1015200021F003014160114DA06D40B18563A06DB4
:10153000FEF7D9FF18B1206E40F040002066606DC4
:10154000002809D08563606DFEF7CDFF002803D029
:10155000206E40F04000206638BDC8688868009062
:1015600038BD2046FFF784FF38BD0000D1220008B7
:1015700070B5040009D0606A002540B1256165613D
:10158000A56294F85D0040B10CE0012070BD606878
:10159000B0F5827FF4D0E561F2E784F85C50204634
:1015A00000F05CF8022084F85D002068016821F0FA
:1015B00040010160E1684FF4E062914201D90020EE
:1015C00001E04FF48050B1F5706F02D0914200D02D
:1015D000A562A188228901F4827102F404421143B8
:1015E000227C02F002021143227D02F0010211432B
:1015F000228B02F400721143227F02F03802114361
:1016000094F8202002F080021143228D02F400524F
:10161000114322681160A169042202EA114194F881
:10162000242000F4805002F01002114394F834207A
:1016300002F008021143A28902F4706211430143CF
:10164000206841602068C16921F40061C16125669C
:10165000012084F85D00002070BD000070B586B0E8
:10166000064614216846FEF79EFE214930688842EE
:101670003CD12049086E40F480500866086E00F4A2
:1016800080500590C86C40F00100C864C86C00250B
:1016900000F001000590A02000900220CDE9010596
:1016A0000520CDE9035069464FF09040FFF726F83A
:1016B000124C114820600B2060601020C4E9020524
:1016C0008020C4E90405A561E56120462562FEF796
:1016D000A3FF08B1FEF705FF746500221146232021
:1016E000A662FFF79FF92320FFF78EF906B070BDC1
:1016F0000030014000100240080002407400002049
:1017000010B5401EB0F1807F01D3012010BD4FF015
:10171000E02460610F21601701F06FF90020A061E3
:1017200007202061002010BDF0B590F83C20012A70
:101730003AD0012580F83C50022280F83D20036811
:101740005A689C68194E1A4FB34201D0BB4204D16B
:1017500022F4700C4A6842EA0C02DFF858C002EA30
:101760000C02D1F800C04CEA020CC3F804C00268B5
:10177000B2420DD0B2F1804F0AD00F4B9A4207D03F
:101780000E4B9A4204D0BA4202D00D4B9A4204D179
:10179000896824F080031943916080F83D5000214E
:1017A00080F83C100846F0BD0220F0BD002C01403E
:1017B000003401408FFFFFFD00040040000800409E
:1017C0000040014010B5040003D094F83D0010B172
:1017D00007E0012010BD002084F83C00204600F006
:1017E00023F8022084F83D00211D206800F0E4FD6C
:1017F000012084F8480084F83E0084F83F0084F813
:10180000400084F8410084F8420084F8430084F8E2
:10181000440084F8450084F8460084F8470084F8C2
:101820003D00002010BD000008B50C4A01680C48BE
:10183000914207D1816D41F004018165806D00F016
:10184000040009E0074A914207D1816D41F010017F
:101850008165806D00F01000009008BD0008004018
:10186000001002400010004090F83D10012901D006
:1018700001207047022180F83D100168CA6842F0DB
:101880000102CA600068104988420ED0B0F1804F52
:101890000BD00E49884208D00D49884205D00D4929
:1018A000884202D00C49884207D181680B4A114016
:1018B000062906D0B1F5803F03D0016841F001014F
:1018C0000160002070470000002C0140000400402F
:1018D00000080040003401400040014007000100C2
:1018E00070B5044690F83C000025012814D001266C
:1018F00084F83C60022084F83D0022689068364BF2
:10190000184020F47F409060086870282ED010DCCA
:1019100010F00F0F03D021E04FF0020070BD4FEA2E
:101920002012072A1AD2DFE802F0525252524A38E5
:1019300040002A4BC21A984249D009DCB0F5805FBA
:101940000DD0B0F5005F1CD0B0F1101F06D13EE005
:10195000102A3CD0202A3AD0502A38D0012584F8C9
:101960003D60002084F83C00284670BDCB68D1E97A
:101970000121206800F07EFD2068816841F0770138
:1019800009E0CB68D1E90121206800F073FD2068EF
:10199000816841F480418160E1E7CA684968206854
:1019A00000F07CFD5021206806E0CA684968206884
:1019B00000F085FD6021206800F066FDCFE7CA6871
:1019C0004968206800F06AFD40212068F4E7226839
:1019D00001461046F0E7000088FFCEFF200010000F
:1019E00090F88410012918D0012180F88410242156
:1019F000C0F8881001680A680B6823F001030B60C7
:101A000022F0005100224266036819602021C0F8CC
:101A1000881080F88420104670470220704770B507
:101A2000044690F8840001281DD0012084F8840029
:101A30002420C4F8880020680568026822F00102AA
:101A400002602068826822F060620A438260204659
:101A500000F048FD206805602020C4F888000020C0
:101A600084F8840070BD022070BD70B5044690F803
:101A7000840001281DD0012084F884002420C4F8AB
:101A8000880020680568026822F001020260206870
:101A9000826822F060420A438260204600F022FD04
:101AA000206805602020C4F88800002084F88400A5
:101AB00070BD022070BD10B5040003D0D4F88800BA
:101AC00010B107E0012010BD002084F884002046FA
:101AD00000F026F82420C4F888002068016821F06E
:101AE00001010160A06A10B1204600F01DFD2046F2
:101AF00000F0FEFD0128E6D02068416821F4904105
:101B000041602068816821F02A01816020680168B5
:101B100041F0010101602046BDE8104000F068BDC1
:101B200010B598B00446142111A8FEF73CFC4421DE
:101B30006846FEF738FC17492068884228D1012002
:101B40000024CDE900046846FFF704F808B1FEF769
:101B5000C8FC1148016E41F480410166016E01F438
:101B600080411691C16C41F00101C164C06C11A9A2
:101B700000F0010016904FF4C06011900220CDE9F2
:101B800012040720CDE914404FF09040FEF7B6FD57
:101B900018B010BD0038014000100240FEE7000000
:101BA00070B5194D00260A24324680212846FEF7DA
:101BB000CEFE012240212846FEF7C9FE00F05AFB66
:101BC000052000F0BFFF012280212846FEF7BFFE5E
:101BD00001E0641EE4B2052000F0B4FF4021284675
:101BE000FEF7B0FE012809D054B10022802128461A
:101BF000FEF7ADFE00F052FB304670BD002CE8D180
:101C000000F05CF8012070BD0004004870B5054686
:101C100000F044FB144C002280212046FEF797FE82
:101C2000002240212046FEF792FE052000F08AFFA8
:101C3000C5B1012240212046FEF789FE0122802104
:101C40002046FEF784FE052000F07CFF0022802164
:101C50002046FEF77CFE2046BDE870400122402170
:101C6000FEF775BE0022E5E70004004810B500F05D
:101C700015FB114C012240212046FEF768FE05208D
:101C800000F060FF012280212046FEF760FE052063
:101C900000F058FF002240212046FEF758FE0520A4
:101CA00000F050FF002280212046FEF750FEBDE8E4
:101CB0001040052000F046BF0004004810B500F0B9
:101CC000EDFA0E4C002280212046FEF740FE002255
:101CD00040212046FEF73BFE012280212046FEF7F0
:101CE00036FE052000F02EFF012240212046FEF79F
:101CF0002EFEBDE81040052000F024BF000400487F
:101D00000D4808B5816C41F004018164816C01F0DB
:101D100004010091816C41F001018164806C00221A
:101D200000F00100009011460B20FEF77BFEBDE89D
:101D300008400B20FEF768BE001002402DE9F0437A
:101D400087B014216846FEF72EFB3648C16C41F07F
:101D50000401C164C16C01F004010591C16C41F042
:101D60002001C164C16C01F020010591C16C41F0FA
:101D70000101C164C16C01F001010591C16C41F028
:101D80000201C164C06C284E00F002004FF4005400
:101D90000590002221463046FEF7D9FD4FF09048CD
:101DA000002206214046FEF7D2FDDFF88090002297
:101DB00046F2C0014846FEF7CAFD0122D703394664
:101DC0004846FEF7C4FD009401240025CDE90145F5
:101DD000694630460395FEF791FC062003268DE800
:101DE000710069464046FEF789FC4FF403508DE8C8
:101DF0003100694648460395FEF780FCA003CDE913
:101E0000000469464846CDE90245FEF777FCCDE976
:101E10000074CDE9024669464846FEF76FFC07B0FC
:101E2000BDE8F083001002400008004800040048AC
:101E3000124810B5104901604FF4827141600021D1
:101E40004FF4E062C0E90212022202610122426103
:101E5000520282610822C0E9072107224162C0E9DB
:101E60000A1201634163FFF783FB002803D0BDE83A
:101E70001040FEF736BB10BD0030014010000020BE
:101E800010B588B00024174800940194029403947C
:101E900004940594124906940160A921C0E9011433
:101EA0004FF6FF71C0E903148461FFF78BFC08B1A2
:101EB000FEF717FB4FF48050009069460948FFF782
:101EC0000FFD08B1FEF70DFB049404A90548069424
:101ED000FFF72AFC002801D0FEF703FB08B010BD75
:101EE00000080040D40000203EB500240F480094B4
:101EF00001940D4902940160A921C0E901144FF435
:101F00007A71C16080218161FFF75CFC08B1FEF746
:101F1000E8FA0094694605480294FFF705FC00289A
:101F200001D0FEF7DEFA3EBD001000402001002087
:101F3000184810B5164901604FF4E13141600021A5
:101F400081600C22C160C0E904128161C16101623B
:101F500041628162FFF7AFFD08B1FEF7C2FA0021CE
:101F60000C48FFF782FD08B1FEF7BBFA00210948D3
:101F7000FFF755FD08B1FEF7B4FA0648FFF730FD4C
:101F8000002803D0BDE81040FEF7ABBA10BD00003A
:101F9000003801406C010020FEE7FEE710B5044662
:101FA0002DED028B0021B0EE408A084600F09AF831
:101FB000B0EE480A00F0AEF8204601F06EF89FED52
:101FC000331B53EC112B01F0B7F89FED321B53EC90
:101FD000112B00F029FE01F033F8044602460021DF
:101FE000084600F0E9F822460021012000F0E4F85C
:101FF00022460021022000F0DFF8224600210320C3
:1020000000F0DAF822460021042000F0D5F822463C
:102010000021052000F0D0F822460021062000F023
:10202000CBF822460021072000F0C6F82246002106
:10203000082000F0C1F822460021092000F0BCF879
:10204000224600210A2000F0B7F8224600210B208A
:1020500000F0B2F8224600210C2000F0ADF8224634
:1020600000210D2000F0A8F8224600210E2000F0EB
:10207000A3F8224600210F2000F09EF8BDEC028B51
:102080006420BDE8104000F057BD00003333333307
:1020900033330340000000000020624010B50446C6
:1020A000FFF7E4FD802000F01DF9FFF779FD2046E1
:1020B00000F018F9FFF774FDFFF700FE0A2000F0AA
:1020C00041FDFFF7D3FD812000F00CF9FFF768FD1B
:1020D00000F0A0F804460120FFF798FDFFF7EEFDA1
:1020E000204610BD70B50D460446FFF7BFFD8020A9
:1020F00000F0F8F8FFF754FD204600F0F3F8FFF782
:102100004FFD284600F0EEF8FFF74AFDBDE87040AD
:10211000FFF7D4BD70B510EE100A2DED028B9FEDC8
:10212000208B01F033FA41EC100B51EC180B53ECFF
:10213000102B00F02DFE9FED1C1B53EC112B01F01A
:102140003BF99FED1B1B53EC112B00F06DFD41EC97
:10215000100B00F065FC51EC100B00F071FFC5B2E4
:102160000020FFF79BFF044600F07F0040F01001C5
:102170000020FFF7B7FF2946FE20FFF7B3FF2146F7
:102180000020FFF7AFFF052000F0D6FCBDEC028B6E
:1021900044F0A101BDE870400020FFF7A3BF00009C
:1021A0000000000084D7B740000000000000F03FAE
:1021B000000000000000E03F70B514460D460646E2
:1021C000FFF754FD802000F08DF8FFF7E9FC0620B2
:1021D00000EB8600C0B200F085F8FFF7E1FCE8B242
:1021E00000F080F8FFF7DCFCC5F3072000F07AF878
:1021F000FFF7D6FCE0B200F075F8FFF7D1FCC4F3AE
:10220000072000F06FF8FFF7CBFCBDE87040FFF748
:1022100055BD704770B5002400F02CF8144E002511
:10222000002280213046FEF792FB052000F08AFC58
:10223000012280213046FEF78AFB052000F082FC57
:102240006006040E40213046FEF77CFB08B144F0E6
:102250000104052000F076FC6D1CEDB2082DDFD3E3
:10226000002280213046FEF772FB204670BD000040
:102270000004004800B585B014216846FEF793F8C5
:102280004020009000200190029069460248FEF72D
:1022900035FA05B000BD00000004004800B585B067
:1022A00014216846FEF77FF840200090012001903D
:1022B0000220039069460248FEF720FA05B000BDEF
:1022C000000400480148FFF7D5B8000010000020C6
:1022D00010B5806A0021A0F84610C187FFF7C8F842
:1022E00010BD704770B505460024FFF7D7FF124EAA
:1022F000002280213046FEF72AFBEA0940213046C1
:10230000FEF725FB012000F01DFC01228021304654
:10231000FEF71DFB052000F015FC00228021304651
:10232000FEF715FB052000F00DFC6806050E641C89
:10233000082CE2DB70BD000000040048FEF712BB71
:1023400000B593B038216846FEF72DF814210EA889
:10235000FEF729F80020FEF797FB0220C101039148
:10236000402104910421CDE9080100905521CDE9D7
:102370000A1007900C900D906846FEF777FE08B1A2
:1023800072B6FEE70F200E9003200F9000201090F1
:102390001190129004210EA8FEF720FD002801D014
:1023A00072B6FEE713B000BD0248016841F4700147
:1023B0000160704788ED00E02DE9F0430268264B8C
:1023C000264D274E274C4FF08049984207D048456C
:1023D00005D0A84203D0B04201D0A04203D122F0E0
:1023E00070074A683A43204FDFF880C0DFF88080EA
:1023F00098420DD048450BD0A84209D0B04207D032
:10240000A04205D0B84203D0604501D0404503D179
:1024100022F44075CA682A434D6922F080022A439B
:1024200002608A68C2620A688262984207D0A0424B
:1024300005D0B84203D0604501D0404501D10969BB
:102440000163012141610169C90703D0016921F0DC
:1024500001010161BDE8F083002C0140000400404F
:1024600000080040003401400040014000440140A9
:102470000048014010B5846842EA032224F47F44F6
:102480000A432243826010BD8268034B1A400A430C
:1024900042F00701816070478FFFCFFF10B5036ADC
:1024A000046A24F001040462846924F0F00444EA1C
:1024B000021423F00A020A438461026210BD10B5BF
:1024C000036A046A24F010040462846923F0A00300
:1024D00024F4704444EA023243EA01118261016249
:1024E00010BD000030B5416EB9B1026891689268C4
:1024F000C1F342610B4B520F9C5CE50003F10804F1
:10250000A25CB5FBF2F2A0F86A205A5C615CD200D2
:10251000B2FBF1F1A0F8681030BD0121A0F86A10FB
:10252000F8E700009036000890F82810090706D553
:1025300001684A68836B22F400421A434A6090F8AB
:102540002810C90706D001684A68C36A22F400321D
:102550001A434A6090F82810890706D501684A682E
:10256000036B22F480321A434A6090F8281049071E
:1025700006D501684A68436B22F480221A434A60F8
:1025800090F82810C90606D501688A68C36B22F442
:1025900080521A438A6090F82810890606D501688F
:1025A0008A68036C22F400521A438A6090F828105B
:1025B000490611D501684A68436C22F480121A4317
:1025C0004A60416CB1F5801F06D101684A68836C8E
:1025D00022F4C0021A434A6090F82810090606D572
:1025E00001684A68C06C22F4002202434A607047C6
:1025F0002DE9F84300260446C0F89060FEF7ACF9D8
:102600008046206800684FF0200500076FF07E4785
:1026100013D54346002229042046009700F0A2F972
:1026200058B1216851E8000F20F0800041E8000215
:10263000002AF6D1C4F8885021E0206800684007DD
:1026400022D5434600224FF480012046009700F037
:1026500089F9C8B1216851E8000F20F4907041E871
:102660000002002AF6D12068083050E8001F21F04F
:10267000010140E80012002AF5D1C4F88C5084F81A
:1026800084600320BDE8F883C4F88850C4F88C50F7
:1026900044F86C6F666026760020F3E710B5026898
:1026A00052E8001F21F4907142E80013002BF6D18C
:1026B0000E4B0268083252E8001F194042E800142D
:1026C000002CF6D1C16E012908D1016851E8002F14
:1026D00022F0100241E80023002BF6D12021C0F89F
:1026E0008C100021C166416710BD0000FEFFFFEFA6
:1026F0002DE9F0410446016880682269E3691043CE
:10270000626900251A431043DFF82CC20A688B4B1C
:102710001A4002430A6020684168E26821F440518F
:10272000114341602168A069614501D0226A1043CC
:102730008A68834B1A4002438A602068C16A626AD1
:1027400021F00F011143C1627E4923687E488B420C
:102750000DD1D0F8880010F0030006D0012855D024
:10276000022842D003283FD152E001203DE07749C2
:102770008B420BD1D0F8880010F00C0035D0042823
:1027800033D0082840D00C282ED141E070498B422C
:102790000BD1D0F8880010F0300026D0102835D0AA
:1027A000202831D030281FD132E06A498B420BD12A
:1027B000D0F8880010F0C00017D0402826D080281C
:1027C00022D0C02810D123E063450DD1D0F8880075
:1027D00010F4406009D0B0F5806F17D0B0F5006FED
:1027E00012D0B0F5406F13D010205B495B4F00262C
:1027F0004FF4004263453BD160B1022813D0042856
:102800000BD0082872D10DE00220EEE70420ECE79F
:102810000820EAE7FEF7D0FB01E0FEF7F1FB01003C
:1028200001D17CE01146606A37F810206768B1FB7F
:10283000F2F007EB4703834270D8B0EB073F6DD847
:10284000002308461946FDF737FD090241EA1061E9
:1028500002027808101871413A460023FDF72CFD5A
:102860003F4AA0F54071914258D82168C86056E0AF
:10287000E3694FF6EF7893422CD109284ED2DFE876
:1028800000F00508114D0D4D4D4D1000FEF794FB65
:1028900001E0FEF7A3FB010004D140E0FEF7B0FB2E
:1028A000F9E71146606A37F81000B1FBF0F041001B
:1028B000606801EB5001B1FBF0F0A0F1100141455F
:1028C0002CD84FF6F0710140C0F34200014320685C
:1028D000C16024E0092821D2DFE800F005091220B8
:1028E0000E2020201100FEF767FB02E016E0FEF745
:1028F00075FB010004D112E0FEF782FBF9E71146F7
:10290000606A37F81000B1FBF0F1606801EB50012C
:10291000B1FBF0F0A0F1100141450AD901250120D9
:10292000A4F86A0024F8680F2846E6602661BDE82E
:10293000F08180B299E7000000800040F369FFCF8A
:10294000FFF4FF1100380140001002400044004035
:1029500000480040004C00400024F4007836000895
:10296000FFFC0F002DE9F047994617460D46044637
:102970004FF00008089E33E0701C31D0FDF7ECFFEB
:10298000A0EB0900B04218D8BEB120680168490721
:1029900026D5802D24D0402D22D0C169C9430907F6
:1029A0000DD4082505622046FFF778FEC4F8905044
:1029B00084F884800120BDE8F0870320FBE7C0692C
:1029C000C04300050CD421684FF400600862204623
:1029D000FFF764FE2020C4F8900084F88480ECE7C0
:1029E0002068C06935EA000004D00020B842C3D096
:1029F0000020E0E70120F9E7FEE70907090E0028BB
:102A000004DB00F1E02080F80014704700F00F00B4
:102A100000F1E02080F8141D704700000000000065
:102A20002DE9F0412DED020B9FED3D0B2DED028BBD
:102A30009FED3D8BDDE90254C4F30A50A0F2FF364E
:102A4000142E37DA002E18DA53EC102B9DED020B02
:102A500051EC100B00F0E8F853EC182B00F06AFC76
:102A600057D2002CA4BF0024254652DA24F000409F
:102A7000284318BF2E4C4CD01AE02E4820FA06F7F7
:102A800004EA070028431FD053EC102B9DED020BE6
:102A900051EC100B00F0C8F853EC182B00F04AFC76
:102AA00037D2002C03DA4FF48010F0400444BC43CA
:102AB00000252EE0332E07DCA6F114004FF0FF3185
:102AC00021FA00F73D4206D19DED020BBDEC028BD1
:102AD00002B0BDE8F08153EC102B9DED020B51ECE0
:102AE000100B00F05DFC53EC182B00F023FC10D20F
:102AF000002C0DDA142E08BF641C09D0C6F1340076
:102B0000012101FA00F02844A84238BF641C0546A0
:102B1000BD43CDE902549DED020BD7E70000000054
:102B20009C7500883CE4377E000000000000000037
:102B30000000F0BFFFFF0F004FF47A71484300F030
:102B400001B800000D4900220B685A620A68136838
:102B500043F00103136009684A6A8242FCD3086AA1
:102B600041F21112104207D1086A9200104203D1BB
:102B7000086820F001000860704700002001002074
:102B80002DED028BFDF7F6FEFFF7DAFBFFF7D6F827
:102B9000FFF7B6F8FFF774F9FFF74AF9FFF7C8F93E
:102BA000FFF7A2F900240D48FEF75EFE9FED0C8AA8
:102BB000B4250020B0EE480AFFF7F0F9641C94FB3E
:102BC000F5F005FB1044E1B2002000F00BF83220D4
:102BD000FFF7B2FF0220FDF77FFDEAE720010020AA
:102BE0000000704210B50446084600F056FA9FED0A
:102BF0000A1B53EC112B00F09FFA9FED091B53ECBD
:102C0000112B00F011F800F01BFA02462046BDE837
:102C100010400021FFF7D0BA9A99999999990140EB
:102C20000000000000C0634010B591EA030F48BFE8
:102C300083F0004300F1C883841A71EB030C05D2C2
:102C4000121943EB0C03001B61EB0C01DFF824E1CC
:102C50004FEA1154A4EB135C1EEA430F18BF9EEA1F
:102C6000445F73D023EA0E03DCF1200E21EA045105
:102C700043F4801332D322FA0CFE10EB0E0023FA39
:102C80000CFE41EB0E01CCF1200E03FA0EFE10EB10
:102C90000E0051F10001B1F5801FCCF1200E32D2AF
:102CA00001EB045112FA0EF2BDE8104058BF704714
:102CB000401C38BF5FEA420218BF7047002814BFAB
:102CC00020F0010041F100014FEA410313F5001F1C
:102CD00038BF7047A1F1C04100F026BB012A43EB89
:102CE0000302ACF1200CDCF11F0E32BF4FF0000EDE
:102CF00023FA0CF310EB030041EB0451B4EB115F2A
:102D0000D0D0A1EB045101F5801149085FEA3000F1
:102D100001EB04510ED350F1000038BF12FA0EFE41
:102D200008D1BDE81040C9E7401C38BF5FEA420245
:102D3000CAD1C3E7BDE810404FEA410313F5001FB5
:102D400038BF7047A1F1C04100F0EEBA9EEA445F7F
:102D500008D011EA5E0FBDE8104004BF01F0004149
:102D600000207047BDE8104070B500F08FFA00BF3A
:102D700064FBBE3E0000E0FF491058BFC1F1404176
:102D80005B1058BFC3F140438B42EFF300807047A4
:102D90002DE9C04130B4DFF8A0C23CEA111418BFDD
:102DA0003CEA131400F0EC8081EA03051CEA1114DC
:102DB00044EAD57418BF1CEA131500F0C780A4EBD1
:102DC00005044FF0004545EAC12145EAC32341EA25
:102DD000505143EA525304F17F74994204F5003490
:102DE0004FEAC0204FEAC22208BF904200F09C8008
:102DF0004FEA13650FF24016765D4FEA134506FB66
:102E000005F7C7F1807706FB07F74FEAD737A7FB2F
:102E100003687642C8F58038A7FB06CE38BFA8F114
:102E2000010807FB08E64FF0000EA6FB028CE6FB4C
:102E300003CEDCF1000CCEF1004E38BFAEF1010E36
:102E4000A6FB0C584FF000074FF00005E6FB0E877D
:102E5000A1FB08C6A0FB07CE16EB0E0645F1000548
:102E6000E1FB076515F1E04E7EBFA4F580345FEA13
:102E700046066D4116F1800745F100054FEA172718
:102E80004FEA066647EA0567A6F1DE46B6F1805FBF
:102E90004FEA15251FD9384624F0010C05EBC47103
:102EA000BCF1FE6F01EB0C1102D8F0BCBDE8008153
:102EB00024425CBF01F5801E9EEAC47F02D4F0BCB0
:102EC000BDE80081244238D4F0BCA1F1C041BDE886
:102ED000004100F029BA4FEAD22242EA43524FEAB7
:102EE000D323A7FB02864FEAD02040EA415007FBDC
:102EF00003661EEA0E0F4FEAD12105FB026658BF9A
:102F0000A6EB0056B6EB00564FEA520E4EEAC37ED1
:102F100018EB0E0E56EB530EBDD518EB02085E41B2
:102F20007F1C55F10005B6E74FF480154FF0000700
:102F30004FF000064FF00008ADE7F0BC4FF0000086
:102F400001F1C04101F00041BDE8008111EA0C1F10
:102F50000CEA131500D00CE013EA0C1F00F02580DA
:102F60004FF00000F0BC81EA030101F00041BDE830
:102F70000081F0BCBDE8004181EA030100F0D4B952
:102F8000F0BCBDE8004170B500F080F9097EFC3E60
:102F900000F007B881EA03014FF0000001F00041A2
:102FA000704781EA030100F0BFB9F0BCBDE8004101
:102FB0004FF0000021497047FFFDFBF9F7F5F4F2EF
:102FC000F0EEEDEBE9E8E6E4E3E1E0DEDDDBDAD8C4
:102FD000D7D5D4D3D1D0CFCDCCCBCAC8C7C6C5C422
:102FE000C2C1C0BFBEBDBCBBBAB9B8B7B6B5B4B339
:102FF000B2B1B0AFAEADACABAAA9A8A8A7A6A5A424
:10300000A3A3A2A1A09F9F9E9D9C9C9B9A999998E7
:103010009797969595949393929191908F8F8E8E8A
:103020008D8C8C8B8B8A8989888887878685858417
:1030300084838382828181800000FF070000F87F03
:103040004FEA1153A3F58063D3F11E03A8BFD3F158
:10305000200C08DB4FF0004242EAC12252EA5052F3
:1030600032FA03F0704709420BD4102BC4BF002082
:10307000704703F5787CBCF1FF3F05D04FF0FF307F
:1030800070474FF00000704770B500F0FFF800BFC8
:103090004992248000207047F0E7B0FA80F310FADC
:1030A00003F10AD0C3F11D0303F580634FEA4150D9
:1030B0004FEA035202EBD12170474FF000007047F6
:1030C00051EA030C17D41CF5801F58BFBCF5801FB4
:1030D00000F10680994218BF704708BF90427047C0
:1030E00007D711F5801F58BF13F5801F19D49942D7
:1030F0007047894270471CF5801F08D5BCF5801FBA
:10310000F7D58B4218BF704708BF824270474FF413
:10311000001C1CEB410F38BF1CEB430F01D28B424C
:10312000704770B500F0B2F8922449004FF000519A
:103130004FF08053FFF720BEDFF848C170B51CEA9E
:10314000111E1EBF1CEA13159EEA0C0F95EA0C0F08
:1031500000F06F8081EA030423EA4C134EEAD47E28
:1031600021EA4C1141F4801143F48013AE44A1FBD9
:10317000024CA0FB0365AEF17F7E361955EB0C05C2
:10318000A1FB034C4CF10003A0FB021C16EB0C0648
:10319000654153F10003094218BF46F0010613F4DC
:1031A000007F0BD14FEA03314FEA0530340341EA87
:1031B000155140EA16506FF003020AE04FEAC321AE
:1031C0004FEAC520F40241EA555140EA56506FF0EB
:1031D000020202EB2E4201EB025585EACE710AD0C3
:1031E0005FEA440C18BF24F0004450F1000041F1A4
:1031F000000120EAD47040F2FE7C624500D270BD2E
:10320000A84214BF4FF080444FF04044002E08BF46
:103210000024BEF1806FA8BFA1F1C041BDE870409D
:1032200080F282804FF0000001F1C04101F00041C6
:1032300070479EEA0C0F0CEA131518BF95EA0C0FA5
:1032400006D04FF0000081EA030E0EF0004170BD81
:1032500000F01CF88900013E00F007B800F009B842
:103260004FEA430C5FEA5C5C08D081EA030100F09E
:103270005BB84FEA410C5FEA5C5CF6D14FF00000AE
:10328000014970470000FF070000F87F0EF1020EB1
:103290002EF0030E5EF8046B364205D4012A43EB90
:1032A000030515F5001F12D8012841EB010C1CF590
:1032B000001F0CD80ED14FEAD17C15F5001F0CEB86
:1032C0004C0C0CF1020C08BF4CEBD37C04E04FF02B
:1032D000080C01E04FEAD37C0CEB4C0526FA05F60E
:1032E00006F00706B6F1040C06D20EEB860CBDE81C
:1032F00070404CF0010C6047DFE80CF0090B020253
:103300004FF000414FF00000A1F5002170BD1946BB
:103310001046012851EB010418BFD4F5001484BFF6
:10332000002001F0004170BD0808A0F500114FEA2F
:103330003101704753EA010C17D41CF5801F58BFA8
:10334000BCF5801F00F106808B4218BF704708BF94
:103350008242704707D713F5801F58BF11F5801FB1
:1033600019D48B4270479B4270471CF5801F08D5CB
:10337000BCF5801FF7D5994218BF704708BF90422F
:1033800070474FF4001C1CEB430F38BF1CEB410F80
:1033900001D2994270470FB40CBC03BCFFF7C1BE09
:1033A00091EA030F10B581F000413FF545AC83F081
:1033B000004300F009B8000010B591EA030F48BFC0
:1033C00083F000433FF538AC841A71EB030C07D24D
:1033D00012198CF0004C43EB0C03001B61EB0C0149
:1033E000DFF8A4E14FEA1154A4EB135C1EEA430F8B
:1033F00018BF9EEA445F00F0B08023EA6E03524299
:1034000021EA0451C3EB6E0338BF5B1EDCF1200ED2
:1034100025D322FA0CFE10EB0E0043FA0CFE41EB12
:103420000E01CCF1200E03FA0EFE10EB0E0051F14E
:103430000001CCF1200E29D412FA0EF201EB045156
:10344000BDE8104058BF7047401C1CBFB2F1004F90
:10345000704700280CBF491C20F00100704712EB98
:10346000020E43EB030218BF4FF0010E4EEA420278
:10347000ACF1200CDCF11E0E54D943FA0CFE10EB1B
:103480000E0051F1FF31CCF11E0ED5D50EF1010E1B
:1034900012FA0EFE404141EB010101EB445C5FEA90
:1034A0005C5C10D910EBDE7001EB045138BFBEF14B
:1034B000004FBDE8104018BF704700280CBF491CE2
:1034C00020F00100704730D24FEAD42C11F50011E2
:1034D00024F400641BD0B1FA81F20B3AA41AA41EA2
:1034E000D2F12003914030FA03F31943904001EBED
:1034F000CC71002C01EB0451BDE81040A8BF70470F
:1035000001F1C0414FF0000001F000417047B0FAF6
:1035100080F310FA03F100D110BDE41A173C4805FE
:10352000C90AE4E701EB045110BD491001EB045155
:10353000BDE810404FEA300002E04FF00001704754
:103540004A0008BF0042F8D0B2F5001F28BF7047FC
:1035500001F000414FF0000070479EEA445F07D041
:1035600011EA5E0FBDE8104004BF00210020704743
:10357000BDE8104070B5FFF789FE00BF40DFF63EA2
:1035800083F00041104670470000E0FF43004FEA1F
:10359000D30C4FEA3C0C43401FBF40070CF1605175
:1035A00013F0FE4F70471CF0006F03D100200CF0A9
:1035B000004170470CF0004343EA507010B540EAF8
:1035C000CC0000F00EF800BF000000924FEA0001AE
:1035D000FFF7AABE4FF000414FF00000A1F5002117
:1035E00070470EF1020E2EF0030E5EF8044B2442DB
:1035F00004D44FEA4102B2F17F4F11D84FEA4003A1
:10360000B3F17F4F0CD80ED14FEAD07CB2F17F4F8F
:103610000CEB4C0C0CF1020C08BF4CEBD17C04E021
:103620004FF0080C01E04FEAD17C0CEB4C0324FA7C
:1036300003F404F00704B4F1040C06D20EEB840C7E
:10364000BDE810404CF0010C6047DFE80CF00708C3
:1036500002024FF00040A0F5800010BD0846420075
:1036600018BFD2F1807288BF00F0004010BD4FF04B
:103670004070E1EE100A70470100020004000600ED
:1036800008000A000C00100020004000800000012B
:1036900001010103070100000804020408010101FF
:1036A00000000000000000000102030406070809F2
:1036B0000000000001020304D836000800000020CA
:1036C0001000000014020008E83600081000002076
:1036D000500A000030020008100000000100000045
:0836E000000000000024F400CA
:04000005080001D915
:00000001FF
